{
  "_format": "hh-sol-artifact-1",
  "contractName": "Mat",
  "sourceName": "contracts/Mat.sol",
  "abi": [
    {
      "inputs": [],
      "stateMutability": "nonpayable",
      "type": "constructor"
    },
    {
      "anonymous": false,
      "inputs": [
        {
          "indexed": true,
          "internalType": "address",
          "name": "account",
          "type": "address"
        },
        {
          "indexed": true,
          "internalType": "address",
          "name": "operator",
          "type": "address"
        },
        {
          "indexed": false,
          "internalType": "bool",
          "name": "approved",
          "type": "bool"
        }
      ],
      "name": "ApprovalForAll",
      "type": "event"
    },
    {
      "anonymous": false,
      "inputs": [
        {
          "indexed": false,
          "internalType": "address",
          "name": "userAddress",
          "type": "address"
        },
        {
          "indexed": false,
          "internalType": "uint256",
          "name": "amount",
          "type": "uint256"
        }
      ],
      "name": "CheckedIn",
      "type": "event"
    },
    {
      "anonymous": false,
      "inputs": [
        {
          "indexed": false,
          "internalType": "address",
          "name": "userAddress",
          "type": "address"
        }
      ],
      "name": "NewUser",
      "type": "event"
    },
    {
      "anonymous": false,
      "inputs": [
        {
          "indexed": true,
          "internalType": "address",
          "name": "previousOwner",
          "type": "address"
        },
        {
          "indexed": true,
          "internalType": "address",
          "name": "newOwner",
          "type": "address"
        }
      ],
      "name": "OwnershipTransferred",
      "type": "event"
    },
    {
      "anonymous": false,
      "inputs": [
        {
          "indexed": true,
          "internalType": "address",
          "name": "operator",
          "type": "address"
        },
        {
          "indexed": true,
          "internalType": "address",
          "name": "from",
          "type": "address"
        },
        {
          "indexed": true,
          "internalType": "address",
          "name": "to",
          "type": "address"
        },
        {
          "indexed": false,
          "internalType": "uint256[]",
          "name": "ids",
          "type": "uint256[]"
        },
        {
          "indexed": false,
          "internalType": "uint256[]",
          "name": "values",
          "type": "uint256[]"
        }
      ],
      "name": "TransferBatch",
      "type": "event"
    },
    {
      "anonymous": false,
      "inputs": [
        {
          "indexed": true,
          "internalType": "address",
          "name": "operator",
          "type": "address"
        },
        {
          "indexed": true,
          "internalType": "address",
          "name": "from",
          "type": "address"
        },
        {
          "indexed": true,
          "internalType": "address",
          "name": "to",
          "type": "address"
        },
        {
          "indexed": false,
          "internalType": "uint256",
          "name": "id",
          "type": "uint256"
        },
        {
          "indexed": false,
          "internalType": "uint256",
          "name": "value",
          "type": "uint256"
        }
      ],
      "name": "TransferSingle",
      "type": "event"
    },
    {
      "anonymous": false,
      "inputs": [
        {
          "indexed": false,
          "internalType": "string",
          "name": "value",
          "type": "string"
        },
        {
          "indexed": true,
          "internalType": "uint256",
          "name": "id",
          "type": "uint256"
        }
      ],
      "name": "URI",
      "type": "event"
    },
    {
      "inputs": [],
      "name": "COIN_ID",
      "outputs": [
        {
          "internalType": "uint64",
          "name": "",
          "type": "uint64"
        }
      ],
      "stateMutability": "view",
      "type": "function"
    },
    {
      "inputs": [
        {
          "internalType": "address",
          "name": "account",
          "type": "address"
        },
        {
          "internalType": "uint256",
          "name": "id",
          "type": "uint256"
        }
      ],
      "name": "balanceOf",
      "outputs": [
        {
          "internalType": "uint256",
          "name": "",
          "type": "uint256"
        }
      ],
      "stateMutability": "view",
      "type": "function"
    },
    {
      "inputs": [
        {
          "internalType": "address[]",
          "name": "accounts",
          "type": "address[]"
        },
        {
          "internalType": "uint256[]",
          "name": "ids",
          "type": "uint256[]"
        }
      ],
      "name": "balanceOfBatch",
      "outputs": [
        {
          "internalType": "uint256[]",
          "name": "",
          "type": "uint256[]"
        }
      ],
      "stateMutability": "view",
      "type": "function"
    },
    {
      "inputs": [
        {
          "internalType": "address",
          "name": "account",
          "type": "address"
        },
        {
          "internalType": "uint256",
          "name": "id",
          "type": "uint256"
        },
        {
          "internalType": "uint256",
          "name": "value",
          "type": "uint256"
        }
      ],
      "name": "burn",
      "outputs": [],
      "stateMutability": "nonpayable",
      "type": "function"
    },
    {
      "inputs": [
        {
          "internalType": "address",
          "name": "account",
          "type": "address"
        },
        {
          "internalType": "uint256[]",
          "name": "ids",
          "type": "uint256[]"
        },
        {
          "internalType": "uint256[]",
          "name": "values",
          "type": "uint256[]"
        }
      ],
      "name": "burnBatch",
      "outputs": [],
      "stateMutability": "nonpayable",
      "type": "function"
    },
    {
      "inputs": [
        {
          "internalType": "address",
          "name": "userAddress",
          "type": "address"
        }
      ],
      "name": "checkIn",
      "outputs": [],
      "stateMutability": "nonpayable",
      "type": "function"
    },
    {
      "inputs": [
        {
          "internalType": "address",
          "name": "userAddress",
          "type": "address"
        }
      ],
      "name": "createUser",
      "outputs": [],
      "stateMutability": "nonpayable",
      "type": "function"
    },
    {
      "inputs": [
        {
          "internalType": "uint256",
          "name": "id",
          "type": "uint256"
        }
      ],
      "name": "exists",
      "outputs": [
        {
          "internalType": "bool",
          "name": "",
          "type": "bool"
        }
      ],
      "stateMutability": "view",
      "type": "function"
    },
    {
      "inputs": [
        {
          "internalType": "address",
          "name": "userAddress",
          "type": "address"
        }
      ],
      "name": "getUser",
      "outputs": [
        {
          "components": [
            {
              "internalType": "uint256",
              "name": "lastCheckIn",
              "type": "uint256"
            },
            {
              "internalType": "bool",
              "name": "initialized",
              "type": "bool"
            }
          ],
          "internalType": "struct Mat.User",
          "name": "",
          "type": "tuple"
        },
        {
          "internalType": "uint256",
          "name": "balance",
          "type": "uint256"
        }
      ],
      "stateMutability": "view",
      "type": "function"
    },
    {
      "inputs": [
        {
          "internalType": "address",
          "name": "account",
          "type": "address"
        },
        {
          "internalType": "address",
          "name": "operator",
          "type": "address"
        }
      ],
      "name": "isApprovedForAll",
      "outputs": [
        {
          "internalType": "bool",
          "name": "",
          "type": "bool"
        }
      ],
      "stateMutability": "view",
      "type": "function"
    },
    {
      "inputs": [
        {
          "internalType": "address",
          "name": "account",
          "type": "address"
        },
        {
          "internalType": "uint256",
          "name": "id",
          "type": "uint256"
        },
        {
          "internalType": "uint256",
          "name": "amount",
          "type": "uint256"
        },
        {
          "internalType": "bytes",
          "name": "data",
          "type": "bytes"
        }
      ],
      "name": "mint",
      "outputs": [],
      "stateMutability": "nonpayable",
      "type": "function"
    },
    {
      "inputs": [
        {
          "internalType": "address",
          "name": "to",
          "type": "address"
        },
        {
          "internalType": "uint256[]",
          "name": "ids",
          "type": "uint256[]"
        },
        {
          "internalType": "uint256[]",
          "name": "amounts",
          "type": "uint256[]"
        },
        {
          "internalType": "bytes",
          "name": "data",
          "type": "bytes"
        }
      ],
      "name": "mintBatch",
      "outputs": [],
      "stateMutability": "nonpayable",
      "type": "function"
    },
    {
      "inputs": [],
      "name": "name",
      "outputs": [
        {
          "internalType": "string",
          "name": "",
          "type": "string"
        }
      ],
      "stateMutability": "view",
      "type": "function"
    },
    {
      "inputs": [],
      "name": "owner",
      "outputs": [
        {
          "internalType": "address",
          "name": "",
          "type": "address"
        }
      ],
      "stateMutability": "view",
      "type": "function"
    },
    {
      "inputs": [],
      "name": "renounceOwnership",
      "outputs": [],
      "stateMutability": "nonpayable",
      "type": "function"
    },
    {
      "inputs": [
        {
          "internalType": "address",
          "name": "from",
          "type": "address"
        },
        {
          "internalType": "address",
          "name": "to",
          "type": "address"
        },
        {
          "internalType": "uint256[]",
          "name": "ids",
          "type": "uint256[]"
        },
        {
          "internalType": "uint256[]",
          "name": "amounts",
          "type": "uint256[]"
        },
        {
          "internalType": "bytes",
          "name": "data",
          "type": "bytes"
        }
      ],
      "name": "safeBatchTransferFrom",
      "outputs": [],
      "stateMutability": "nonpayable",
      "type": "function"
    },
    {
      "inputs": [
        {
          "internalType": "address",
          "name": "from",
          "type": "address"
        },
        {
          "internalType": "address",
          "name": "to",
          "type": "address"
        },
        {
          "internalType": "uint256",
          "name": "id",
          "type": "uint256"
        },
        {
          "internalType": "uint256",
          "name": "amount",
          "type": "uint256"
        },
        {
          "internalType": "bytes",
          "name": "data",
          "type": "bytes"
        }
      ],
      "name": "safeTransferFrom",
      "outputs": [],
      "stateMutability": "nonpayable",
      "type": "function"
    },
    {
      "inputs": [
        {
          "internalType": "address",
          "name": "operator",
          "type": "address"
        },
        {
          "internalType": "bool",
          "name": "approved",
          "type": "bool"
        }
      ],
      "name": "setApprovalForAll",
      "outputs": [],
      "stateMutability": "nonpayable",
      "type": "function"
    },
    {
      "inputs": [
        {
          "internalType": "string",
          "name": "newuri",
          "type": "string"
        }
      ],
      "name": "setURI",
      "outputs": [],
      "stateMutability": "nonpayable",
      "type": "function"
    },
    {
      "inputs": [
        {
          "internalType": "bytes4",
          "name": "interfaceId",
          "type": "bytes4"
        }
      ],
      "name": "supportsInterface",
      "outputs": [
        {
          "internalType": "bool",
          "name": "",
          "type": "bool"
        }
      ],
      "stateMutability": "view",
      "type": "function"
    },
    {
      "inputs": [],
      "name": "symbol",
      "outputs": [
        {
          "internalType": "string",
          "name": "",
          "type": "string"
        }
      ],
      "stateMutability": "view",
      "type": "function"
    },
    {
      "inputs": [
        {
          "internalType": "uint256",
          "name": "id",
          "type": "uint256"
        }
      ],
      "name": "totalSupply",
      "outputs": [
        {
          "internalType": "uint256",
          "name": "",
          "type": "uint256"
        }
      ],
      "stateMutability": "view",
      "type": "function"
    },
    {
      "inputs": [
        {
          "internalType": "address",
          "name": "newOwner",
          "type": "address"
        }
      ],
      "name": "transferOwnership",
      "outputs": [],
      "stateMutability": "nonpayable",
      "type": "function"
    },
    {
      "inputs": [
        {
          "internalType": "uint256",
          "name": "",
          "type": "uint256"
        }
      ],
      "name": "uri",
      "outputs": [
        {
          "internalType": "string",
          "name": "",
          "type": "string"
        }
      ],
      "stateMutability": "view",
      "type": "function"
    },
    {
      "inputs": [
        {
          "internalType": "address",
          "name": "",
          "type": "address"
        }
      ],
      "name": "users",
      "outputs": [
        {
          "internalType": "uint256",
          "name": "lastCheckIn",
          "type": "uint256"
        },
        {
          "internalType": "bool",
          "name": "initialized",
          "type": "bool"
        }
      ],
      "stateMutability": "view",
      "type": "function"
    }
  ],
  "bytecode": "0x60806040523480156200001157600080fd5b506040518060200160405280600081525062000033816200005a60201b60201c565b5062000054620000486200006f60201b60201c565b6200007760201b60201c565b6200049e565b80600290816200006b9190620003b7565b5050565b600033905090565b6000600360009054906101000a900473ffffffffffffffffffffffffffffffffffffffff16905081600360006101000a81548173ffffffffffffffffffffffffffffffffffffffff021916908373ffffffffffffffffffffffffffffffffffffffff1602179055508173ffffffffffffffffffffffffffffffffffffffff168173ffffffffffffffffffffffffffffffffffffffff167f8be0079c531659141344cd1fd0a4f28419497f9722a3daafe3b4186f6b6457e060405160405180910390a35050565b600081519050919050565b7f4e487b7100000000000000000000000000000000000000000000000000000000600052604160045260246000fd5b7f4e487b7100000000000000000000000000000000000000000000000000000000600052602260045260246000fd5b60006002820490506001821680620001bf57607f821691505b602082108103620001d557620001d462000177565b5b50919050565b60008190508160005260206000209050919050565b60006020601f8301049050919050565b600082821b905092915050565b6000600883026200023f7fffffffffffffffffffffffffffffffffffffffffffffffffffffffffffffffff8262000200565b6200024b868362000200565b95508019841693508086168417925050509392505050565b6000819050919050565b6000819050919050565b600062000298620002926200028c8462000263565b6200026d565b62000263565b9050919050565b6000819050919050565b620002b48362000277565b620002cc620002c3826200029f565b8484546200020d565b825550505050565b600090565b620002e3620002d4565b620002f0818484620002a9565b505050565b5b8181101562000318576200030c600082620002d9565b600181019050620002f6565b5050565b601f82111562000367576200033181620001db565b6200033c84620001f0565b810160208510156200034c578190505b620003646200035b85620001f0565b830182620002f5565b50505b505050565b600082821c905092915050565b60006200038c600019846008026200036c565b1980831691505092915050565b6000620003a7838362000379565b9150826002028217905092915050565b620003c2826200013d565b67ffffffffffffffff811115620003de57620003dd62000148565b5b620003ea8254620001a6565b620003f78282856200031c565b600060209050601f8311600181146200042f57600084156200041a578287015190505b62000426858262000399565b86555062000496565b601f1984166200043f86620001db565b60005b82811015620004695784890151825560018201915060208501945060208101905062000442565b8683101562000489578489015162000485601f89168262000379565b8355505b6001600288020188555050505b505050505050565b61487780620004ae6000396000f3fe608060405234801561001057600080fd5b50600436106101725760003560e01c8063731133e9116100de578063bd85b03911610097578063e985e9c511610071578063e985e9c51461045b578063f242432a1461048b578063f2fde38b146104a7578063f5298aca146104c357610172565b8063bd85b039146103f3578063cdd8761814610423578063d9a59e331461043f57610172565b8063731133e9146103305780638da5cb5b1461034c57806395d89b411461036a5780639ecc626a14610388578063a22cb465146103a6578063a87430ba146103c257610172565b80632eb2c2d6116101305780632eb2c2d61461025d5780634e1273f4146102795780634f558e79146102a95780636b20c454146102d95780636f77926b146102f5578063715018a61461032657610172565b8062fdd58e1461017757806301ffc9a7146101a757806302fe5305146101d757806306fdde03146101f35780630e89341c146102115780631f7fdffa14610241575b600080fd5b610191600480360381019061018c9190612a0c565b6104df565b60405161019e9190612a5b565b60405180910390f35b6101c160048036038101906101bc9190612ace565b6105a7565b6040516101ce9190612b16565b60405180910390f35b6101f160048036038101906101ec9190612c77565b610689565b005b6101fb61069d565b6040516102089190612d3f565b60405180910390f35b61022b60048036038101906102269190612d61565b6106d6565b6040516102389190612d3f565b60405180910390f35b61025b60048036038101906102569190612ef7565b61076a565b005b61027760048036038101906102729190612fb2565b610784565b005b610293600480360381019061028e9190613144565b610825565b6040516102a0919061327a565b60405180910390f35b6102c360048036038101906102be9190612d61565b61093e565b6040516102d09190612b16565b60405180910390f35b6102f360048036038101906102ee919061329c565b610952565b005b61030f600480360381019061030a9190613327565b6109ef565b60405161031d929190613392565b60405180910390f35b61032e610b46565b005b61034a600480360381019061034591906133bb565b610b5a565b005b610354610b74565b604051610361919061344d565b60405180910390f35b610372610b9e565b60405161037f9190612d3f565b60405180910390f35b610390610bd7565b60405161039d919061348b565b60405180910390f35b6103c060048036038101906103bb91906134d2565b610bdc565b005b6103dc60048036038101906103d79190613327565b610bf2565b6040516103ea929190613512565b60405180910390f35b61040d60048036038101906104089190612d61565b610c23565b60405161041a9190612a5b565b60405180910390f35b61043d60048036038101906104389190613327565b610c40565b005b61045960048036038101906104549190613327565b610d37565b005b6104756004803603810190610470919061353b565b610e47565b6040516104829190612b16565b60405180910390f35b6104a560048036038101906104a0919061357b565b610edb565b005b6104c160048036038101906104bc9190613327565b610f7c565b005b6104dd60048036038101906104d89190613612565b610fff565b005b60008073ffffffffffffffffffffffffffffffffffffffff168373ffffffffffffffffffffffffffffffffffffffff160361054f576040517f08c379a0000000000000000000000000000000000000000000000000000000008152600401610546906136d7565b60405180910390fd5b60008083815260200190815260200160002060008473ffffffffffffffffffffffffffffffffffffffff1673ffffffffffffffffffffffffffffffffffffffff16815260200190815260200160002054905092915050565b60007fd9b67a26000000000000000000000000000000000000000000000000000000007bffffffffffffffffffffffffffffffffffffffffffffffffffffffff1916827bffffffffffffffffffffffffffffffffffffffffffffffffffffffff1916148061067257507f0e89341c000000000000000000000000000000000000000000000000000000007bffffffffffffffffffffffffffffffffffffffffffffffffffffffff1916827bffffffffffffffffffffffffffffffffffffffffffffffffffffffff1916145b8061068257506106818261109c565b5b9050919050565b610691611106565b61069a81611184565b50565b6040518060400160405280601081526020017f4d7920417765736f6d6520546f6b656e0000000000000000000000000000000081525081565b6060600280546106e590613726565b80601f016020809104026020016040519081016040528092919081815260200182805461071190613726565b801561075e5780601f106107335761010080835404028352916020019161075e565b820191906000526020600020905b81548152906001019060200180831161074157829003601f168201915b50505050509050919050565b610772611106565b61077e84848484611197565b50505050565b61078c6113c3565b73ffffffffffffffffffffffffffffffffffffffff168573ffffffffffffffffffffffffffffffffffffffff1614806107d257506107d1856107cc6113c3565b610e47565b5b610811576040517f08c379a0000000000000000000000000000000000000000000000000000000008152600401610808906137c9565b60405180910390fd5b61081e85858585856113cb565b5050505050565b6060815183511461086b576040517f08c379a00000000000000000000000000000000000000000000000000000000081526004016108629061385b565b60405180910390fd5b6000835167ffffffffffffffff81111561088857610887612b4c565b5b6040519080825280602002602001820160405280156108b65781602001602082028036833780820191505090505b50905060005b8451811015610933576109038582815181106108db576108da61387b565b5b60200260200101518583815181106108f6576108f561387b565b5b60200260200101516104df565b8282815181106109165761091561387b565b5b6020026020010181815250508061092c906138d9565b90506108bc565b508091505092915050565b60008061094a83610c23565b119050919050565b61095a6113c3565b73ffffffffffffffffffffffffffffffffffffffff168373ffffffffffffffffffffffffffffffffffffffff1614806109a0575061099f8361099a6113c3565b610e47565b5b6109df576040517f08c379a00000000000000000000000000000000000000000000000000000000081526004016109d6906137c9565b60405180910390fd5b6109ea8383836116ec565b505050565b6109f7612948565b600080600560008573ffffffffffffffffffffffffffffffffffffffff1673ffffffffffffffffffffffffffffffffffffffff168152602001908152602001600020604051806040016040529081600082015481526020016001820160009054906101000a900460ff16151515158152505090508060200151610aaf576040517f08c379a0000000000000000000000000000000000000000000000000000000008152600401610aa69061396d565b60405180910390fd5b6000610ac685600067ffffffffffffffff166104df565b9050600560008673ffffffffffffffffffffffffffffffffffffffff1673ffffffffffffffffffffffffffffffffffffffff1681526020019081526020016000208181604051806040016040529081600082015481526020016001820160009054906101000a900460ff1615151515815250509150935093505050915091565b610b4e611106565b610b5860006119ba565b565b610b62611106565b610b6e84848484611a80565b50505050565b6000600360009054906101000a900473ffffffffffffffffffffffffffffffffffffffff16905090565b6040518060400160405280600381526020017f4d4154000000000000000000000000000000000000000000000000000000000081525081565b600081565b610bee610be76113c3565b8383611c30565b5050565b60056020528060005260406000206000915090508060000154908060010160009054906101000a900460ff16905082565b600060046000838152602001908152602001600020549050919050565b6000600560008373ffffffffffffffffffffffffffffffffffffffff1673ffffffffffffffffffffffffffffffffffffffff16815260200190815260200160002090508060010160009054906101000a900460ff1615610cd5576040517f08c379a0000000000000000000000000000000000000000000000000000000008152600401610ccc906139d9565b60405180910390fd5b6000816000018190555060018160010160006101000a81548160ff0219169083151502179055507f7ee9b70bf129b91a237044ce07c93c79f5562b96b53c04f7edaf7c9d6711f3d882604051610d2b919061344d565b60405180910390a15050565b6000600560008373ffffffffffffffffffffffffffffffffffffffff1673ffffffffffffffffffffffffffffffffffffffff16815260200190815260200160002090506000610d8a826000015442611d9c565b90508015610dcd576040517f08c379a0000000000000000000000000000000000000000000000000000000008152600401610dc490613a6b565b60405180910390fd5b4282600001819055506000610de0611db7565b9050610e0884600067ffffffffffffffff168360405180602001604052806000815250611a80565b7fdddb6e14f7f2101397a6526aab95e964de7f1f44ed06aa47a1c9a0e6b99244568482604051610e39929190613a8b565b60405180910390a150505050565b6000600160008473ffffffffffffffffffffffffffffffffffffffff1673ffffffffffffffffffffffffffffffffffffffff16815260200190815260200160002060008373ffffffffffffffffffffffffffffffffffffffff1673ffffffffffffffffffffffffffffffffffffffff16815260200190815260200160002060009054906101000a900460ff16905092915050565b610ee36113c3565b73ffffffffffffffffffffffffffffffffffffffff168573ffffffffffffffffffffffffffffffffffffffff161480610f295750610f2885610f236113c3565b610e47565b5b610f68576040517f08c379a0000000000000000000000000000000000000000000000000000000008152600401610f5f906137c9565b60405180910390fd5b610f758585858585611e26565b5050505050565b610f84611106565b600073ffffffffffffffffffffffffffffffffffffffff168173ffffffffffffffffffffffffffffffffffffffff1603610ff3576040517f08c379a0000000000000000000000000000000000000000000000000000000008152600401610fea90613b26565b60405180910390fd5b610ffc816119ba565b50565b6110076113c3565b73ffffffffffffffffffffffffffffffffffffffff168373ffffffffffffffffffffffffffffffffffffffff16148061104d575061104c836110476113c3565b610e47565b5b61108c576040517f08c379a0000000000000000000000000000000000000000000000000000000008152600401611083906137c9565b60405180910390fd5b6110978383836120c1565b505050565b60007f01ffc9a7000000000000000000000000000000000000000000000000000000007bffffffffffffffffffffffffffffffffffffffffffffffffffffffff1916827bffffffffffffffffffffffffffffffffffffffffffffffffffffffff1916149050919050565b61110e6113c3565b73ffffffffffffffffffffffffffffffffffffffff1661112c610b74565b73ffffffffffffffffffffffffffffffffffffffff1614611182576040517f08c379a000000000000000000000000000000000000000000000000000000000815260040161117990613b92565b60405180910390fd5b565b80600290816111939190613d5e565b5050565b600073ffffffffffffffffffffffffffffffffffffffff168473ffffffffffffffffffffffffffffffffffffffff1603611206576040517f08c379a00000000000000000000000000000000000000000000000000000000081526004016111fd90613ea2565b60405180910390fd5b815183511461124a576040517f08c379a000000000000000000000000000000000000000000000000000000000815260040161124190613f34565b60405180910390fd5b60006112546113c3565b905061126581600087878787612307565b60005b845181101561131e578381815181106112845761128361387b565b5b60200260200101516000808784815181106112a2576112a161387b565b5b6020026020010151815260200190815260200160002060008873ffffffffffffffffffffffffffffffffffffffff1673ffffffffffffffffffffffffffffffffffffffff16815260200190815260200160002060008282546113049190613f54565b925050819055508080611316906138d9565b915050611268565b508473ffffffffffffffffffffffffffffffffffffffff16600073ffffffffffffffffffffffffffffffffffffffff168273ffffffffffffffffffffffffffffffffffffffff167f4a39dc06d4c0dbc64b70af90fd698a233a518aa5d07e595d983b8c0526c8f7fb8787604051611396929190613f88565b60405180910390a46113ad8160008787878761231d565b6113bc81600087878787612325565b5050505050565b600033905090565b815183511461140f576040517f08c379a000000000000000000000000000000000000000000000000000000000815260040161140690613f34565b60405180910390fd5b600073ffffffffffffffffffffffffffffffffffffffff168473ffffffffffffffffffffffffffffffffffffffff160361147e576040517f08c379a000000000000000000000000000000000000000000000000000000000815260040161147590614031565b60405180910390fd5b60006114886113c3565b9050611498818787878787612307565b60005b84518110156116495760008582815181106114b9576114b861387b565b5b6020026020010151905060008583815181106114d8576114d761387b565b5b60200260200101519050600080600084815260200190815260200160002060008b73ffffffffffffffffffffffffffffffffffffffff1673ffffffffffffffffffffffffffffffffffffffff16815260200190815260200160002054905081811015611579576040517f08c379a0000000000000000000000000000000000000000000000000000000008152600401611570906140c3565b60405180910390fd5b81810360008085815260200190815260200160002060008c73ffffffffffffffffffffffffffffffffffffffff1673ffffffffffffffffffffffffffffffffffffffff168152602001908152602001600020819055508160008085815260200190815260200160002060008b73ffffffffffffffffffffffffffffffffffffffff1673ffffffffffffffffffffffffffffffffffffffff168152602001908152602001600020600082825461162e9190613f54565b9250508190555050505080611642906138d9565b905061149b565b508473ffffffffffffffffffffffffffffffffffffffff168673ffffffffffffffffffffffffffffffffffffffff168273ffffffffffffffffffffffffffffffffffffffff167f4a39dc06d4c0dbc64b70af90fd698a233a518aa5d07e595d983b8c0526c8f7fb87876040516116c0929190613f88565b60405180910390a46116d681878787878761231d565b6116e4818787878787612325565b505050505050565b600073ffffffffffffffffffffffffffffffffffffffff168373ffffffffffffffffffffffffffffffffffffffff160361175b576040517f08c379a000000000000000000000000000000000000000000000000000000000815260040161175290614155565b60405180910390fd5b805182511461179f576040517f08c379a000000000000000000000000000000000000000000000000000000000815260040161179690613f34565b60405180910390fd5b60006117a96113c3565b90506117c981856000868660405180602001604052806000815250612307565b60005b83518110156119165760008482815181106117ea576117e961387b565b5b6020026020010151905060008483815181106118095761180861387b565b5b60200260200101519050600080600084815260200190815260200160002060008973ffffffffffffffffffffffffffffffffffffffff1673ffffffffffffffffffffffffffffffffffffffff168152602001908152602001600020549050818110156118aa576040517f08c379a00000000000000000000000000000000000000000000000000000000081526004016118a1906141e7565b60405180910390fd5b81810360008085815260200190815260200160002060008a73ffffffffffffffffffffffffffffffffffffffff1673ffffffffffffffffffffffffffffffffffffffff16815260200190815260200160002081905550505050808061190e906138d9565b9150506117cc565b50600073ffffffffffffffffffffffffffffffffffffffff168473ffffffffffffffffffffffffffffffffffffffff168273ffffffffffffffffffffffffffffffffffffffff167f4a39dc06d4c0dbc64b70af90fd698a233a518aa5d07e595d983b8c0526c8f7fb868660405161198e929190613f88565b60405180910390a46119b48185600086866040518060200160405280600081525061231d565b50505050565b6000600360009054906101000a900473ffffffffffffffffffffffffffffffffffffffff16905081600360006101000a81548173ffffffffffffffffffffffffffffffffffffffff021916908373ffffffffffffffffffffffffffffffffffffffff1602179055508173ffffffffffffffffffffffffffffffffffffffff168173ffffffffffffffffffffffffffffffffffffffff167f8be0079c531659141344cd1fd0a4f28419497f9722a3daafe3b4186f6b6457e060405160405180910390a35050565b600073ffffffffffffffffffffffffffffffffffffffff168473ffffffffffffffffffffffffffffffffffffffff1603611aef576040517f08c379a0000000000000000000000000000000000000000000000000000000008152600401611ae690613ea2565b60405180910390fd5b6000611af96113c3565b90506000611b06856124fc565b90506000611b13856124fc565b9050611b2483600089858589612307565b8460008088815260200190815260200160002060008973ffffffffffffffffffffffffffffffffffffffff1673ffffffffffffffffffffffffffffffffffffffff1681526020019081526020016000206000828254611b839190613f54565b925050819055508673ffffffffffffffffffffffffffffffffffffffff16600073ffffffffffffffffffffffffffffffffffffffff168473ffffffffffffffffffffffffffffffffffffffff167fc3d58168c5ae7397731d063d5bbf3d657854427343f4c083240f7aacaa2d0f628989604051611c01929190614207565b60405180910390a4611c188360008985858961231d565b611c2783600089898989612576565b50505050505050565b8173ffffffffffffffffffffffffffffffffffffffff168373ffffffffffffffffffffffffffffffffffffffff1603611c9e576040517f08c379a0000000000000000000000000000000000000000000000000000000008152600401611c95906142a2565b60405180910390fd5b80600160008573ffffffffffffffffffffffffffffffffffffffff1673ffffffffffffffffffffffffffffffffffffffff16815260200190815260200160002060008473ffffffffffffffffffffffffffffffffffffffff1673ffffffffffffffffffffffffffffffffffffffff16815260200190815260200160002060006101000a81548160ff0219169083151502179055508173ffffffffffffffffffffffffffffffffffffffff168373ffffffffffffffffffffffffffffffffffffffff167f17307eab39ab6107e8899845ad3d59bd9653f200f220920489ca2b5937696c3183604051611d8f9190612b16565b60405180910390a3505050565b6000620151808383611dae91906142c2565b10905092915050565b600080424433604051602001611dcf9392919061435f565b6040516020818303038152906040528051906020012060001c9050600160ff166001806002611dfe91906143a9565b611e0891906143de565b60ff1682611e169190614442565b611e209190613f54565b91505090565b600073ffffffffffffffffffffffffffffffffffffffff168473ffffffffffffffffffffffffffffffffffffffff1603611e95576040517f08c379a0000000000000000000000000000000000000000000000000000000008152600401611e8c90614031565b60405180910390fd5b6000611e9f6113c3565b90506000611eac856124fc565b90506000611eb9856124fc565b9050611ec9838989858589612307565b600080600088815260200190815260200160002060008a73ffffffffffffffffffffffffffffffffffffffff1673ffffffffffffffffffffffffffffffffffffffff16815260200190815260200160002054905085811015611f60576040517f08c379a0000000000000000000000000000000000000000000000000000000008152600401611f57906140c3565b60405180910390fd5b85810360008089815260200190815260200160002060008b73ffffffffffffffffffffffffffffffffffffffff1673ffffffffffffffffffffffffffffffffffffffff168152602001908152602001600020819055508560008089815260200190815260200160002060008a73ffffffffffffffffffffffffffffffffffffffff1673ffffffffffffffffffffffffffffffffffffffff16815260200190815260200160002060008282546120159190613f54565b925050819055508773ffffffffffffffffffffffffffffffffffffffff168973ffffffffffffffffffffffffffffffffffffffff168573ffffffffffffffffffffffffffffffffffffffff167fc3d58168c5ae7397731d063d5bbf3d657854427343f4c083240f7aacaa2d0f628a8a604051612092929190614207565b60405180910390a46120a8848a8a86868a61231d565b6120b6848a8a8a8a8a612576565b505050505050505050565b600073ffffffffffffffffffffffffffffffffffffffff168373ffffffffffffffffffffffffffffffffffffffff1603612130576040517f08c379a000000000000000000000000000000000000000000000000000000000815260040161212790614155565b60405180910390fd5b600061213a6113c3565b90506000612147846124fc565b90506000612154846124fc565b905061217483876000858560405180602001604052806000815250612307565b600080600087815260200190815260200160002060008873ffffffffffffffffffffffffffffffffffffffff1673ffffffffffffffffffffffffffffffffffffffff1681526020019081526020016000205490508481101561220b576040517f08c379a0000000000000000000000000000000000000000000000000000000008152600401612202906141e7565b60405180910390fd5b84810360008088815260200190815260200160002060008973ffffffffffffffffffffffffffffffffffffffff1673ffffffffffffffffffffffffffffffffffffffff16815260200190815260200160002081905550600073ffffffffffffffffffffffffffffffffffffffff168773ffffffffffffffffffffffffffffffffffffffff168573ffffffffffffffffffffffffffffffffffffffff167fc3d58168c5ae7397731d063d5bbf3d657854427343f4c083240f7aacaa2d0f6289896040516122d8929190614207565b60405180910390a46122fe8488600086866040518060200160405280600081525061231d565b50505050505050565b61231586868686868661274d565b505050505050565b505050505050565b6123448473ffffffffffffffffffffffffffffffffffffffff1661291d565b156124f4578373ffffffffffffffffffffffffffffffffffffffff1663bc197c8187878686866040518663ffffffff1660e01b815260040161238a9594939291906144c8565b6020604051808303816000875af19250505080156123c657506040513d601f19601f820116820180604052508101906123c39190614545565b60015b61246b576123d261457f565b806308c379a00361242e57506123e66145a1565b806123f15750612430565b806040517f08c379a00000000000000000000000000000000000000000000000000000000081526004016124259190612d3f565b60405180910390fd5b505b6040517f08c379a0000000000000000000000000000000000000000000000000000000008152600401612462906146a3565b60405180910390fd5b63bc197c8160e01b7bffffffffffffffffffffffffffffffffffffffffffffffffffffffff1916817bffffffffffffffffffffffffffffffffffffffffffffffffffffffff1916146124f2576040517f08c379a00000000000000000000000000000000000000000000000000000000081526004016124e990614735565b60405180910390fd5b505b505050505050565b60606000600167ffffffffffffffff81111561251b5761251a612b4c565b5b6040519080825280602002602001820160405280156125495781602001602082028036833780820191505090505b50905082816000815181106125615761256061387b565b5b60200260200101818152505080915050919050565b6125958473ffffffffffffffffffffffffffffffffffffffff1661291d565b15612745578373ffffffffffffffffffffffffffffffffffffffff1663f23a6e6187878686866040518663ffffffff1660e01b81526004016125db959493929190614755565b6020604051808303816000875af192505050801561261757506040513d601f19601f820116820180604052508101906126149190614545565b60015b6126bc5761262361457f565b806308c379a00361267f57506126376145a1565b806126425750612681565b806040517f08c379a00000000000000000000000000000000000000000000000000000000081526004016126769190612d3f565b60405180910390fd5b505b6040517f08c379a00000000000000000000000000000000000000000000000000000000081526004016126b3906146a3565b60405180910390fd5b63f23a6e6160e01b7bffffffffffffffffffffffffffffffffffffffffffffffffffffffff1916817bffffffffffffffffffffffffffffffffffffffffffffffffffffffff191614612743576040517f08c379a000000000000000000000000000000000000000000000000000000000815260040161273a90614735565b60405180910390fd5b505b505050505050565b61275b868686868686612940565b600073ffffffffffffffffffffffffffffffffffffffff168573ffffffffffffffffffffffffffffffffffffffff160361280c5760005b835181101561280a578281815181106127ae576127ad61387b565b5b6020026020010151600460008684815181106127cd576127cc61387b565b5b6020026020010151815260200190815260200160002060008282546127f29190613f54565b9250508190555080612803906138d9565b9050612792565b505b600073ffffffffffffffffffffffffffffffffffffffff168473ffffffffffffffffffffffffffffffffffffffff16036129155760005b83518110156129135760008482815181106128615761286061387b565b5b6020026020010151905060008483815181106128805761287f61387b565b5b60200260200101519050600060046000848152602001908152602001600020549050818110156128e5576040517f08c379a00000000000000000000000000000000000000000000000000000000081526004016128dc90614821565b60405180910390fd5b81810360046000858152602001908152602001600020819055505050508061290c906138d9565b9050612843565b505b505050505050565b6000808273ffffffffffffffffffffffffffffffffffffffff163b119050919050565b505050505050565b6040518060400160405280600081526020016000151581525090565b6000604051905090565b600080fd5b600080fd5b600073ffffffffffffffffffffffffffffffffffffffff82169050919050565b60006129a382612978565b9050919050565b6129b381612998565b81146129be57600080fd5b50565b6000813590506129d0816129aa565b92915050565b6000819050919050565b6129e9816129d6565b81146129f457600080fd5b50565b600081359050612a06816129e0565b92915050565b60008060408385031215612a2357612a2261296e565b5b6000612a31858286016129c1565b9250506020612a42858286016129f7565b9150509250929050565b612a55816129d6565b82525050565b6000602082019050612a706000830184612a4c565b92915050565b60007fffffffff0000000000000000000000000000000000000000000000000000000082169050919050565b612aab81612a76565b8114612ab657600080fd5b50565b600081359050612ac881612aa2565b92915050565b600060208284031215612ae457612ae361296e565b5b6000612af284828501612ab9565b91505092915050565b60008115159050919050565b612b1081612afb565b82525050565b6000602082019050612b2b6000830184612b07565b92915050565b600080fd5b600080fd5b6000601f19601f8301169050919050565b7f4e487b7100000000000000000000000000000000000000000000000000000000600052604160045260246000fd5b612b8482612b3b565b810181811067ffffffffffffffff82111715612ba357612ba2612b4c565b5b80604052505050565b6000612bb6612964565b9050612bc28282612b7b565b919050565b600067ffffffffffffffff821115612be257612be1612b4c565b5b612beb82612b3b565b9050602081019050919050565b82818337600083830152505050565b6000612c1a612c1584612bc7565b612bac565b905082815260208101848484011115612c3657612c35612b36565b5b612c41848285612bf8565b509392505050565b600082601f830112612c5e57612c5d612b31565b5b8135612c6e848260208601612c07565b91505092915050565b600060208284031215612c8d57612c8c61296e565b5b600082013567ffffffffffffffff811115612cab57612caa612973565b5b612cb784828501612c49565b91505092915050565b600081519050919050565b600082825260208201905092915050565b60005b83811015612cfa578082015181840152602081019050612cdf565b60008484015250505050565b6000612d1182612cc0565b612d1b8185612ccb565b9350612d2b818560208601612cdc565b612d3481612b3b565b840191505092915050565b60006020820190508181036000830152612d598184612d06565b905092915050565b600060208284031215612d7757612d7661296e565b5b6000612d85848285016129f7565b91505092915050565b600067ffffffffffffffff821115612da957612da8612b4c565b5b602082029050602081019050919050565b600080fd5b6000612dd2612dcd84612d8e565b612bac565b90508083825260208201905060208402830185811115612df557612df4612dba565b5b835b81811015612e1e5780612e0a88826129f7565b845260208401935050602081019050612df7565b5050509392505050565b600082601f830112612e3d57612e3c612b31565b5b8135612e4d848260208601612dbf565b91505092915050565b600067ffffffffffffffff821115612e7157612e70612b4c565b5b612e7a82612b3b565b9050602081019050919050565b6000612e9a612e9584612e56565b612bac565b905082815260208101848484011115612eb657612eb5612b36565b5b612ec1848285612bf8565b509392505050565b600082601f830112612ede57612edd612b31565b5b8135612eee848260208601612e87565b91505092915050565b60008060008060808587031215612f1157612f1061296e565b5b6000612f1f878288016129c1565b945050602085013567ffffffffffffffff811115612f4057612f3f612973565b5b612f4c87828801612e28565b935050604085013567ffffffffffffffff811115612f6d57612f6c612973565b5b612f7987828801612e28565b925050606085013567ffffffffffffffff811115612f9a57612f99612973565b5b612fa687828801612ec9565b91505092959194509250565b600080600080600060a08688031215612fce57612fcd61296e565b5b6000612fdc888289016129c1565b9550506020612fed888289016129c1565b945050604086013567ffffffffffffffff81111561300e5761300d612973565b5b61301a88828901612e28565b935050606086013567ffffffffffffffff81111561303b5761303a612973565b5b61304788828901612e28565b925050608086013567ffffffffffffffff81111561306857613067612973565b5b61307488828901612ec9565b9150509295509295909350565b600067ffffffffffffffff82111561309c5761309b612b4c565b5b602082029050602081019050919050565b60006130c06130bb84613081565b612bac565b905080838252602082019050602084028301858111156130e3576130e2612dba565b5b835b8181101561310c57806130f888826129c1565b8452602084019350506020810190506130e5565b5050509392505050565b600082601f83011261312b5761312a612b31565b5b813561313b8482602086016130ad565b91505092915050565b6000806040838503121561315b5761315a61296e565b5b600083013567ffffffffffffffff81111561317957613178612973565b5b61318585828601613116565b925050602083013567ffffffffffffffff8111156131a6576131a5612973565b5b6131b285828601612e28565b9150509250929050565b600081519050919050565b600082825260208201905092915050565b6000819050602082019050919050565b6131f1816129d6565b82525050565b600061320383836131e8565b60208301905092915050565b6000602082019050919050565b6000613227826131bc565b61323181856131c7565b935061323c836131d8565b8060005b8381101561326d57815161325488826131f7565b975061325f8361320f565b925050600181019050613240565b5085935050505092915050565b60006020820190508181036000830152613294818461321c565b905092915050565b6000806000606084860312156132b5576132b461296e565b5b60006132c3868287016129c1565b935050602084013567ffffffffffffffff8111156132e4576132e3612973565b5b6132f086828701612e28565b925050604084013567ffffffffffffffff81111561331157613310612973565b5b61331d86828701612e28565b9150509250925092565b60006020828403121561333d5761333c61296e565b5b600061334b848285016129c1565b91505092915050565b61335d81612afb565b82525050565b60408201600082015161337960008501826131e8565b50602082015161338c6020850182613354565b50505050565b60006060820190506133a76000830185613363565b6133b46040830184612a4c565b9392505050565b600080600080608085870312156133d5576133d461296e565b5b60006133e3878288016129c1565b94505060206133f4878288016129f7565b9350506040613405878288016129f7565b925050606085013567ffffffffffffffff81111561342657613425612973565b5b61343287828801612ec9565b91505092959194509250565b61344781612998565b82525050565b6000602082019050613462600083018461343e565b92915050565b600067ffffffffffffffff82169050919050565b61348581613468565b82525050565b60006020820190506134a0600083018461347c565b92915050565b6134af81612afb565b81146134ba57600080fd5b50565b6000813590506134cc816134a6565b92915050565b600080604083850312156134e9576134e861296e565b5b60006134f7858286016129c1565b9250506020613508858286016134bd565b9150509250929050565b60006040820190506135276000830185612a4c565b6135346020830184612b07565b9392505050565b600080604083850312156135525761355161296e565b5b6000613560858286016129c1565b9250506020613571858286016129c1565b9150509250929050565b600080600080600060a086880312156135975761359661296e565b5b60006135a5888289016129c1565b95505060206135b6888289016129c1565b94505060406135c7888289016129f7565b93505060606135d8888289016129f7565b925050608086013567ffffffffffffffff8111156135f9576135f8612973565b5b61360588828901612ec9565b9150509295509295909350565b60008060006060848603121561362b5761362a61296e565b5b6000613639868287016129c1565b935050602061364a868287016129f7565b925050604061365b868287016129f7565b9150509250925092565b7f455243313135353a2061646472657373207a65726f206973206e6f742061207660008201527f616c6964206f776e657200000000000000000000000000000000000000000000602082015250565b60006136c1602a83612ccb565b91506136cc82613665565b604082019050919050565b600060208201905081810360008301526136f0816136b4565b9050919050565b7f4e487b7100000000000000000000000000000000000000000000000000000000600052602260045260246000fd5b6000600282049050600182168061373e57607f821691505b602082108103613751576137506136f7565b5b50919050565b7f455243313135353a2063616c6c6572206973206e6f7420746f6b656e206f776e60008201527f6572206f7220617070726f766564000000000000000000000000000000000000602082015250565b60006137b3602e83612ccb565b91506137be82613757565b604082019050919050565b600060208201905081810360008301526137e2816137a6565b9050919050565b7f455243313135353a206163636f756e747320616e6420696473206c656e67746860008201527f206d69736d617463680000000000000000000000000000000000000000000000602082015250565b6000613845602983612ccb565b9150613850826137e9565b604082019050919050565b6000602082019050818103600083015261387481613838565b9050919050565b7f4e487b7100000000000000000000000000000000000000000000000000000000600052603260045260246000fd5b7f4e487b7100000000000000000000000000000000000000000000000000000000600052601160045260246000fd5b60006138e4826129d6565b91507fffffffffffffffffffffffffffffffffffffffffffffffffffffffffffffffff8203613916576139156138aa565b5b600182019050919050565b7f5573657220646f6573206e6f7420657869737400000000000000000000000000600082015250565b6000613957601383612ccb565b915061396282613921565b602082019050919050565b600060208201905081810360008301526139868161394a565b9050919050565b7f5573657220616c72656164792065786973747300000000000000000000000000600082015250565b60006139c3601383612ccb565b91506139ce8261398d565b602082019050919050565b600060208201905081810360008301526139f2816139b6565b9050919050565b7f557365722068617320616c726561647920636865636b656420696e20746f646160008201527f7900000000000000000000000000000000000000000000000000000000000000602082015250565b6000613a55602183612ccb565b9150613a60826139f9565b604082019050919050565b60006020820190508181036000830152613a8481613a48565b9050919050565b6000604082019050613aa0600083018561343e565b613aad6020830184612a4c565b9392505050565b7f4f776e61626c653a206e6577206f776e657220697320746865207a65726f206160008201527f6464726573730000000000000000000000000000000000000000000000000000602082015250565b6000613b10602683612ccb565b9150613b1b82613ab4565b604082019050919050565b60006020820190508181036000830152613b3f81613b03565b9050919050565b7f4f776e61626c653a2063616c6c6572206973206e6f7420746865206f776e6572600082015250565b6000613b7c602083612ccb565b9150613b8782613b46565b602082019050919050565b60006020820190508181036000830152613bab81613b6f565b9050919050565b60008190508160005260206000209050919050565b60006020601f8301049050919050565b600082821b905092915050565b600060088302613c147fffffffffffffffffffffffffffffffffffffffffffffffffffffffffffffffff82613bd7565b613c1e8683613bd7565b95508019841693508086168417925050509392505050565b6000819050919050565b6000613c5b613c56613c51846129d6565b613c36565b6129d6565b9050919050565b6000819050919050565b613c7583613c40565b613c89613c8182613c62565b848454613be4565b825550505050565b600090565b613c9e613c91565b613ca9818484613c6c565b505050565b5b81811015613ccd57613cc2600082613c96565b600181019050613caf565b5050565b601f821115613d1257613ce381613bb2565b613cec84613bc7565b81016020851015613cfb578190505b613d0f613d0785613bc7565b830182613cae565b50505b505050565b600082821c905092915050565b6000613d3560001984600802613d17565b1980831691505092915050565b6000613d4e8383613d24565b9150826002028217905092915050565b613d6782612cc0565b67ffffffffffffffff811115613d8057613d7f612b4c565b5b613d8a8254613726565b613d95828285613cd1565b600060209050601f831160018114613dc85760008415613db6578287015190505b613dc08582613d42565b865550613e28565b601f198416613dd686613bb2565b60005b82811015613dfe57848901518255600182019150602085019450602081019050613dd9565b86831015613e1b5784890151613e17601f891682613d24565b8355505b6001600288020188555050505b505050505050565b7f455243313135353a206d696e7420746f20746865207a65726f2061646472657360008201527f7300000000000000000000000000000000000000000000000000000000000000602082015250565b6000613e8c602183612ccb565b9150613e9782613e30565b604082019050919050565b60006020820190508181036000830152613ebb81613e7f565b9050919050565b7f455243313135353a2069647320616e6420616d6f756e7473206c656e6774682060008201527f6d69736d61746368000000000000000000000000000000000000000000000000602082015250565b6000613f1e602883612ccb565b9150613f2982613ec2565b604082019050919050565b60006020820190508181036000830152613f4d81613f11565b9050919050565b6000613f5f826129d6565b9150613f6a836129d6565b9250828201905080821115613f8257613f816138aa565b5b92915050565b60006040820190508181036000830152613fa2818561321c565b90508181036020830152613fb6818461321c565b90509392505050565b7f455243313135353a207472616e7366657220746f20746865207a65726f20616460008201527f6472657373000000000000000000000000000000000000000000000000000000602082015250565b600061401b602583612ccb565b915061402682613fbf565b604082019050919050565b6000602082019050818103600083015261404a8161400e565b9050919050565b7f455243313135353a20696e73756666696369656e742062616c616e636520666f60008201527f72207472616e7366657200000000000000000000000000000000000000000000602082015250565b60006140ad602a83612ccb565b91506140b882614051565b604082019050919050565b600060208201905081810360008301526140dc816140a0565b9050919050565b7f455243313135353a206275726e2066726f6d20746865207a65726f206164647260008201527f6573730000000000000000000000000000000000000000000000000000000000602082015250565b600061413f602383612ccb565b915061414a826140e3565b604082019050919050565b6000602082019050818103600083015261416e81614132565b9050919050565b7f455243313135353a206275726e20616d6f756e7420657863656564732062616c60008201527f616e636500000000000000000000000000000000000000000000000000000000602082015250565b60006141d1602483612ccb565b91506141dc82614175565b604082019050919050565b60006020820190508181036000830152614200816141c4565b9050919050565b600060408201905061421c6000830185612a4c565b6142296020830184612a4c565b9392505050565b7f455243313135353a2073657474696e6720617070726f76616c2073746174757360008201527f20666f722073656c660000000000000000000000000000000000000000000000602082015250565b600061428c602983612ccb565b915061429782614230565b604082019050919050565b600060208201905081810360008301526142bb8161427f565b9050919050565b60006142cd826129d6565b91506142d8836129d6565b92508282039050818111156142f0576142ef6138aa565b5b92915050565b6000819050919050565b61431161430c826129d6565b6142f6565b82525050565b60008160601b9050919050565b600061432f82614317565b9050919050565b600061434182614324565b9050919050565b61435961435482612998565b614336565b82525050565b600061436b8286614300565b60208201915061437b8285614300565b60208201915061438b8284614348565b601482019150819050949350505050565b600060ff82169050919050565b60006143b48261439c565b91506143bf8361439c565b9250828203905060ff8111156143d8576143d76138aa565b5b92915050565b60006143e98261439c565b91506143f48361439c565b9250828201905060ff81111561440d5761440c6138aa565b5b92915050565b7f4e487b7100000000000000000000000000000000000000000000000000000000600052601260045260246000fd5b600061444d826129d6565b9150614458836129d6565b92508261446857614467614413565b5b828206905092915050565b600081519050919050565b600082825260208201905092915050565b600061449a82614473565b6144a4818561447e565b93506144b4818560208601612cdc565b6144bd81612b3b565b840191505092915050565b600060a0820190506144dd600083018861343e565b6144ea602083018761343e565b81810360408301526144fc818661321c565b90508181036060830152614510818561321c565b90508181036080830152614524818461448f565b90509695505050505050565b60008151905061453f81612aa2565b92915050565b60006020828403121561455b5761455a61296e565b5b600061456984828501614530565b91505092915050565b60008160e01c9050919050565b600060033d111561459e5760046000803e61459b600051614572565b90505b90565b600060443d1061462e576145b3612964565b60043d036004823e80513d602482011167ffffffffffffffff821117156145db57505061462e565b808201805167ffffffffffffffff8111156145f9575050505061462e565b80602083010160043d03850181111561461657505050505061462e565b61462582602001850186612b7b565b82955050505050505b90565b7f455243313135353a207472616e7366657220746f206e6f6e2d4552433131353560008201527f526563656976657220696d706c656d656e746572000000000000000000000000602082015250565b600061468d603483612ccb565b915061469882614631565b604082019050919050565b600060208201905081810360008301526146bc81614680565b9050919050565b7f455243313135353a204552433131353552656365697665722072656a6563746560008201527f6420746f6b656e73000000000000000000000000000000000000000000000000602082015250565b600061471f602883612ccb565b915061472a826146c3565b604082019050919050565b6000602082019050818103600083015261474e81614712565b9050919050565b600060a08201905061476a600083018861343e565b614777602083018761343e565b6147846040830186612a4c565b6147916060830185612a4c565b81810360808301526147a3818461448f565b90509695505050505050565b7f455243313135353a206275726e20616d6f756e74206578636565647320746f7460008201527f616c537570706c79000000000000000000000000000000000000000000000000602082015250565b600061480b602883612ccb565b9150614816826147af565b604082019050919050565b6000602082019050818103600083015261483a816147fe565b905091905056fea26469706673582212202bef2360c48739379feb498f806fc9244fb793df8ef571a7603917678dd0fa5764736f6c63430008130033",
  "linkReferences": {},
  "deployedLinkReferences": {}
}