{
  "_format": "hh-sol-artifact-1",
  "contractName": "Mat",
  "sourceName": "contracts/Mat.sol",
  "abi": [
    {
      "inputs": [],
      "stateMutability": "nonpayable",
      "type": "constructor"
    },
    {
      "anonymous": false,
      "inputs": [
        {
          "indexed": true,
          "internalType": "address",
          "name": "account",
          "type": "address"
        },
        {
          "indexed": true,
          "internalType": "address",
          "name": "operator",
          "type": "address"
        },
        {
          "indexed": false,
          "internalType": "bool",
          "name": "approved",
          "type": "bool"
        }
      ],
      "name": "ApprovalForAll",
      "type": "event"
    },
    {
      "anonymous": false,
      "inputs": [
        {
          "indexed": false,
          "internalType": "address",
          "name": "userAddress",
          "type": "address"
        },
        {
          "indexed": false,
          "internalType": "uint256",
          "name": "amount",
          "type": "uint256"
        }
      ],
      "name": "CheckedIn",
      "type": "event"
    },
    {
      "anonymous": false,
      "inputs": [
        {
          "indexed": false,
          "internalType": "address",
          "name": "userAddress",
          "type": "address"
        }
      ],
      "name": "NewUser",
      "type": "event"
    },
    {
      "anonymous": false,
      "inputs": [
        {
          "indexed": true,
          "internalType": "address",
          "name": "previousOwner",
          "type": "address"
        },
        {
          "indexed": true,
          "internalType": "address",
          "name": "newOwner",
          "type": "address"
        }
      ],
      "name": "OwnershipTransferred",
      "type": "event"
    },
    {
      "anonymous": false,
      "inputs": [
        {
          "indexed": true,
          "internalType": "address",
          "name": "operator",
          "type": "address"
        },
        {
          "indexed": true,
          "internalType": "address",
          "name": "from",
          "type": "address"
        },
        {
          "indexed": true,
          "internalType": "address",
          "name": "to",
          "type": "address"
        },
        {
          "indexed": false,
          "internalType": "uint256[]",
          "name": "ids",
          "type": "uint256[]"
        },
        {
          "indexed": false,
          "internalType": "uint256[]",
          "name": "values",
          "type": "uint256[]"
        }
      ],
      "name": "TransferBatch",
      "type": "event"
    },
    {
      "anonymous": false,
      "inputs": [
        {
          "indexed": true,
          "internalType": "address",
          "name": "operator",
          "type": "address"
        },
        {
          "indexed": true,
          "internalType": "address",
          "name": "from",
          "type": "address"
        },
        {
          "indexed": true,
          "internalType": "address",
          "name": "to",
          "type": "address"
        },
        {
          "indexed": false,
          "internalType": "uint256",
          "name": "id",
          "type": "uint256"
        },
        {
          "indexed": false,
          "internalType": "uint256",
          "name": "value",
          "type": "uint256"
        }
      ],
      "name": "TransferSingle",
      "type": "event"
    },
    {
      "anonymous": false,
      "inputs": [
        {
          "indexed": false,
          "internalType": "string",
          "name": "value",
          "type": "string"
        },
        {
          "indexed": true,
          "internalType": "uint256",
          "name": "id",
          "type": "uint256"
        }
      ],
      "name": "URI",
      "type": "event"
    },
    {
      "inputs": [],
      "name": "COIN_ID",
      "outputs": [
        {
          "internalType": "uint64",
          "name": "",
          "type": "uint64"
        }
      ],
      "stateMutability": "view",
      "type": "function"
    },
    {
      "inputs": [
        {
          "internalType": "address",
          "name": "account",
          "type": "address"
        },
        {
          "internalType": "uint256",
          "name": "id",
          "type": "uint256"
        }
      ],
      "name": "balanceOf",
      "outputs": [
        {
          "internalType": "uint256",
          "name": "",
          "type": "uint256"
        }
      ],
      "stateMutability": "view",
      "type": "function"
    },
    {
      "inputs": [
        {
          "internalType": "address[]",
          "name": "accounts",
          "type": "address[]"
        },
        {
          "internalType": "uint256[]",
          "name": "ids",
          "type": "uint256[]"
        }
      ],
      "name": "balanceOfBatch",
      "outputs": [
        {
          "internalType": "uint256[]",
          "name": "",
          "type": "uint256[]"
        }
      ],
      "stateMutability": "view",
      "type": "function"
    },
    {
      "inputs": [
        {
          "internalType": "address",
          "name": "account",
          "type": "address"
        },
        {
          "internalType": "uint256",
          "name": "id",
          "type": "uint256"
        },
        {
          "internalType": "uint256",
          "name": "value",
          "type": "uint256"
        }
      ],
      "name": "burn",
      "outputs": [],
      "stateMutability": "nonpayable",
      "type": "function"
    },
    {
      "inputs": [
        {
          "internalType": "address",
          "name": "account",
          "type": "address"
        },
        {
          "internalType": "uint256[]",
          "name": "ids",
          "type": "uint256[]"
        },
        {
          "internalType": "uint256[]",
          "name": "values",
          "type": "uint256[]"
        }
      ],
      "name": "burnBatch",
      "outputs": [],
      "stateMutability": "nonpayable",
      "type": "function"
    },
    {
      "inputs": [
        {
          "internalType": "address",
          "name": "userAddress",
          "type": "address"
        }
      ],
      "name": "checkIn",
      "outputs": [],
      "stateMutability": "nonpayable",
      "type": "function"
    },
    {
      "inputs": [
        {
          "internalType": "address",
          "name": "userAddress",
          "type": "address"
        }
      ],
      "name": "createUser",
      "outputs": [],
      "stateMutability": "nonpayable",
      "type": "function"
    },
    {
      "inputs": [
        {
          "internalType": "uint256",
          "name": "id",
          "type": "uint256"
        }
      ],
      "name": "exists",
      "outputs": [
        {
          "internalType": "bool",
          "name": "",
          "type": "bool"
        }
      ],
      "stateMutability": "view",
      "type": "function"
    },
    {
      "inputs": [
        {
          "internalType": "address",
          "name": "userAddress",
          "type": "address"
        }
      ],
      "name": "getUser",
      "outputs": [
        {
          "components": [
            {
              "internalType": "uint256",
              "name": "lastCheckIn",
              "type": "uint256"
            },
            {
              "internalType": "bool",
              "name": "initialized",
              "type": "bool"
            }
          ],
          "internalType": "struct Mat.User",
          "name": "",
          "type": "tuple"
        },
        {
          "internalType": "uint256",
          "name": "balance",
          "type": "uint256"
        }
      ],
      "stateMutability": "view",
      "type": "function"
    },
    {
      "inputs": [
        {
          "internalType": "address",
          "name": "account",
          "type": "address"
        },
        {
          "internalType": "address",
          "name": "operator",
          "type": "address"
        }
      ],
      "name": "isApprovedForAll",
      "outputs": [
        {
          "internalType": "bool",
          "name": "",
          "type": "bool"
        }
      ],
      "stateMutability": "view",
      "type": "function"
    },
    {
      "inputs": [
        {
          "internalType": "address",
          "name": "account",
          "type": "address"
        },
        {
          "internalType": "uint256",
          "name": "id",
          "type": "uint256"
        },
        {
          "internalType": "uint256",
          "name": "amount",
          "type": "uint256"
        },
        {
          "internalType": "bytes",
          "name": "data",
          "type": "bytes"
        }
      ],
      "name": "mint",
      "outputs": [],
      "stateMutability": "nonpayable",
      "type": "function"
    },
    {
      "inputs": [
        {
          "internalType": "address",
          "name": "to",
          "type": "address"
        },
        {
          "internalType": "uint256[]",
          "name": "ids",
          "type": "uint256[]"
        },
        {
          "internalType": "uint256[]",
          "name": "amounts",
          "type": "uint256[]"
        },
        {
          "internalType": "bytes",
          "name": "data",
          "type": "bytes"
        }
      ],
      "name": "mintBatch",
      "outputs": [],
      "stateMutability": "nonpayable",
      "type": "function"
    },
    {
      "inputs": [],
      "name": "name",
      "outputs": [
        {
          "internalType": "string",
          "name": "",
          "type": "string"
        }
      ],
      "stateMutability": "view",
      "type": "function"
    },
    {
      "inputs": [],
      "name": "owner",
      "outputs": [
        {
          "internalType": "address",
          "name": "",
          "type": "address"
        }
      ],
      "stateMutability": "view",
      "type": "function"
    },
    {
      "inputs": [],
      "name": "renounceOwnership",
      "outputs": [],
      "stateMutability": "nonpayable",
      "type": "function"
    },
    {
      "inputs": [
        {
          "internalType": "address",
          "name": "from",
          "type": "address"
        },
        {
          "internalType": "address",
          "name": "to",
          "type": "address"
        },
        {
          "internalType": "uint256[]",
          "name": "ids",
          "type": "uint256[]"
        },
        {
          "internalType": "uint256[]",
          "name": "amounts",
          "type": "uint256[]"
        },
        {
          "internalType": "bytes",
          "name": "data",
          "type": "bytes"
        }
      ],
      "name": "safeBatchTransferFrom",
      "outputs": [],
      "stateMutability": "nonpayable",
      "type": "function"
    },
    {
      "inputs": [
        {
          "internalType": "address",
          "name": "from",
          "type": "address"
        },
        {
          "internalType": "address",
          "name": "to",
          "type": "address"
        },
        {
          "internalType": "uint256",
          "name": "id",
          "type": "uint256"
        },
        {
          "internalType": "uint256",
          "name": "amount",
          "type": "uint256"
        },
        {
          "internalType": "bytes",
          "name": "data",
          "type": "bytes"
        }
      ],
      "name": "safeTransferFrom",
      "outputs": [],
      "stateMutability": "nonpayable",
      "type": "function"
    },
    {
      "inputs": [
        {
          "internalType": "address",
          "name": "operator",
          "type": "address"
        },
        {
          "internalType": "bool",
          "name": "approved",
          "type": "bool"
        }
      ],
      "name": "setApprovalForAll",
      "outputs": [],
      "stateMutability": "nonpayable",
      "type": "function"
    },
    {
      "inputs": [
        {
          "internalType": "string",
          "name": "newuri",
          "type": "string"
        }
      ],
      "name": "setURI",
      "outputs": [],
      "stateMutability": "nonpayable",
      "type": "function"
    },
    {
      "inputs": [
        {
          "internalType": "bytes4",
          "name": "interfaceId",
          "type": "bytes4"
        }
      ],
      "name": "supportsInterface",
      "outputs": [
        {
          "internalType": "bool",
          "name": "",
          "type": "bool"
        }
      ],
      "stateMutability": "view",
      "type": "function"
    },
    {
      "inputs": [],
      "name": "symbol",
      "outputs": [
        {
          "internalType": "string",
          "name": "",
          "type": "string"
        }
      ],
      "stateMutability": "view",
      "type": "function"
    },
    {
      "inputs": [
        {
          "internalType": "uint256",
          "name": "id",
          "type": "uint256"
        }
      ],
      "name": "totalSupply",
      "outputs": [
        {
          "internalType": "uint256",
          "name": "",
          "type": "uint256"
        }
      ],
      "stateMutability": "view",
      "type": "function"
    },
    {
      "inputs": [
        {
          "internalType": "address",
          "name": "newOwner",
          "type": "address"
        }
      ],
      "name": "transferOwnership",
      "outputs": [],
      "stateMutability": "nonpayable",
      "type": "function"
    },
    {
      "inputs": [
        {
          "internalType": "uint256",
          "name": "",
          "type": "uint256"
        }
      ],
      "name": "uri",
      "outputs": [
        {
          "internalType": "string",
          "name": "",
          "type": "string"
        }
      ],
      "stateMutability": "view",
      "type": "function"
    },
    {
      "inputs": [
        {
          "internalType": "address",
          "name": "",
          "type": "address"
        }
      ],
      "name": "users",
      "outputs": [
        {
          "internalType": "uint256",
          "name": "lastCheckIn",
          "type": "uint256"
        },
        {
          "internalType": "bool",
          "name": "initialized",
          "type": "bool"
        }
      ],
      "stateMutability": "view",
      "type": "function"
    }
  ],
  "bytecode": "0x60806040523480156200001157600080fd5b506040518060200160405280600081525062000033816200005a60201b60201c565b5062000054620000486200006f60201b60201c565b6200007760201b60201c565b6200049e565b80600290816200006b9190620003b7565b5050565b600033905090565b6000600360009054906101000a900473ffffffffffffffffffffffffffffffffffffffff16905081600360006101000a81548173ffffffffffffffffffffffffffffffffffffffff021916908373ffffffffffffffffffffffffffffffffffffffff1602179055508173ffffffffffffffffffffffffffffffffffffffff168173ffffffffffffffffffffffffffffffffffffffff167f8be0079c531659141344cd1fd0a4f28419497f9722a3daafe3b4186f6b6457e060405160405180910390a35050565b600081519050919050565b7f4e487b7100000000000000000000000000000000000000000000000000000000600052604160045260246000fd5b7f4e487b7100000000000000000000000000000000000000000000000000000000600052602260045260246000fd5b60006002820490506001821680620001bf57607f821691505b602082108103620001d557620001d462000177565b5b50919050565b60008190508160005260206000209050919050565b60006020601f8301049050919050565b600082821b905092915050565b6000600883026200023f7fffffffffffffffffffffffffffffffffffffffffffffffffffffffffffffffff8262000200565b6200024b868362000200565b95508019841693508086168417925050509392505050565b6000819050919050565b6000819050919050565b600062000298620002926200028c8462000263565b6200026d565b62000263565b9050919050565b6000819050919050565b620002b48362000277565b620002cc620002c3826200029f565b8484546200020d565b825550505050565b600090565b620002e3620002d4565b620002f0818484620002a9565b505050565b5b8181101562000318576200030c600082620002d9565b600181019050620002f6565b5050565b601f82111562000367576200033181620001db565b6200033c84620001f0565b810160208510156200034c578190505b620003646200035b85620001f0565b830182620002f5565b50505b505050565b600082821c905092915050565b60006200038c600019846008026200036c565b1980831691505092915050565b6000620003a7838362000379565b9150826002028217905092915050565b620003c2826200013d565b67ffffffffffffffff811115620003de57620003dd62000148565b5b620003ea8254620001a6565b620003f78282856200031c565b600060209050601f8311600181146200042f57600084156200041a578287015190505b62000426858262000399565b86555062000496565b601f1984166200043f86620001db565b60005b82811015620004695784890151825560018201915060208501945060208101905062000442565b8683101562000489578489015162000485601f89168262000379565b8355505b6001600288020188555050505b505050505050565b61458980620004ae6000396000f3fe608060405234801561001057600080fd5b50600436106101725760003560e01c8063731133e9116100de578063bd85b03911610097578063e985e9c511610071578063e985e9c51461045b578063f242432a1461048b578063f2fde38b146104a7578063f5298aca146104c357610172565b8063bd85b039146103f3578063cdd8761814610423578063d9a59e331461043f57610172565b8063731133e9146103305780638da5cb5b1461034c57806395d89b411461036a5780639ecc626a14610388578063a22cb465146103a6578063a87430ba146103c257610172565b80632eb2c2d6116101305780632eb2c2d61461025d5780634e1273f4146102795780634f558e79146102a95780636b20c454146102d95780636f77926b146102f5578063715018a61461032657610172565b8062fdd58e1461017757806301ffc9a7146101a757806302fe5305146101d757806306fdde03146101f35780630e89341c146102115780631f7fdffa14610241575b600080fd5b610191600480360381019061018c9190612961565b6104df565b60405161019e91906129b0565b60405180910390f35b6101c160048036038101906101bc9190612a23565b6105a7565b6040516101ce9190612a6b565b60405180910390f35b6101f160048036038101906101ec9190612bcc565b610689565b005b6101fb61069d565b6040516102089190612c94565b60405180910390f35b61022b60048036038101906102269190612cb6565b6106d6565b6040516102389190612c94565b60405180910390f35b61025b60048036038101906102569190612e4c565b61076a565b005b61027760048036038101906102729190612f07565b610784565b005b610293600480360381019061028e9190613099565b610825565b6040516102a091906131cf565b60405180910390f35b6102c360048036038101906102be9190612cb6565b61093e565b6040516102d09190612a6b565b60405180910390f35b6102f360048036038101906102ee91906131f1565b610952565b005b61030f600480360381019061030a919061327c565b6109ef565b60405161031d9291906132e7565b60405180910390f35b61032e610b46565b005b61034a60048036038101906103459190613310565b610b5a565b005b610354610b74565b60405161036191906133a2565b60405180910390f35b610372610b9e565b60405161037f9190612c94565b60405180910390f35b610390610bd7565b60405161039d91906133e0565b60405180910390f35b6103c060048036038101906103bb9190613427565b610bdc565b005b6103dc60048036038101906103d7919061327c565b610bf2565b6040516103ea929190613467565b60405180910390f35b61040d60048036038101906104089190612cb6565b610c23565b60405161041a91906129b0565b60405180910390f35b61043d6004803603810190610438919061327c565b610c40565b005b6104596004803603810190610454919061327c565b610d37565b005b61047560048036038101906104709190613490565b610e26565b6040516104829190612a6b565b60405180910390f35b6104a560048036038101906104a091906134d0565b610eba565b005b6104c160048036038101906104bc919061327c565b610f5b565b005b6104dd60048036038101906104d89190613567565b610fde565b005b60008073ffffffffffffffffffffffffffffffffffffffff168373ffffffffffffffffffffffffffffffffffffffff160361054f576040517f08c379a00000000000000000000000000000000000000000000000000000000081526004016105469061362c565b60405180910390fd5b60008083815260200190815260200160002060008473ffffffffffffffffffffffffffffffffffffffff1673ffffffffffffffffffffffffffffffffffffffff16815260200190815260200160002054905092915050565b60007fd9b67a26000000000000000000000000000000000000000000000000000000007bffffffffffffffffffffffffffffffffffffffffffffffffffffffff1916827bffffffffffffffffffffffffffffffffffffffffffffffffffffffff1916148061067257507f0e89341c000000000000000000000000000000000000000000000000000000007bffffffffffffffffffffffffffffffffffffffffffffffffffffffff1916827bffffffffffffffffffffffffffffffffffffffffffffffffffffffff1916145b8061068257506106818261107b565b5b9050919050565b6106916110e5565b61069a81611163565b50565b6040518060400160405280601081526020017f4d7920417765736f6d6520546f6b656e0000000000000000000000000000000081525081565b6060600280546106e59061367b565b80601f01602080910402602001604051908101604052809291908181526020018280546107119061367b565b801561075e5780601f106107335761010080835404028352916020019161075e565b820191906000526020600020905b81548152906001019060200180831161074157829003601f168201915b50505050509050919050565b6107726110e5565b61077e84848484611176565b50505050565b61078c6113a2565b73ffffffffffffffffffffffffffffffffffffffff168573ffffffffffffffffffffffffffffffffffffffff1614806107d257506107d1856107cc6113a2565b610e26565b5b610811576040517f08c379a00000000000000000000000000000000000000000000000000000000081526004016108089061371e565b60405180910390fd5b61081e85858585856113aa565b5050505050565b6060815183511461086b576040517f08c379a0000000000000000000000000000000000000000000000000000000008152600401610862906137b0565b60405180910390fd5b6000835167ffffffffffffffff81111561088857610887612aa1565b5b6040519080825280602002602001820160405280156108b65781602001602082028036833780820191505090505b50905060005b8451811015610933576109038582815181106108db576108da6137d0565b5b60200260200101518583815181106108f6576108f56137d0565b5b60200260200101516104df565b828281518110610916576109156137d0565b5b6020026020010181815250508061092c9061382e565b90506108bc565b508091505092915050565b60008061094a83610c23565b119050919050565b61095a6113a2565b73ffffffffffffffffffffffffffffffffffffffff168373ffffffffffffffffffffffffffffffffffffffff1614806109a0575061099f8361099a6113a2565b610e26565b5b6109df576040517f08c379a00000000000000000000000000000000000000000000000000000000081526004016109d69061371e565b60405180910390fd5b6109ea8383836116cb565b505050565b6109f761289d565b600080600560008573ffffffffffffffffffffffffffffffffffffffff1673ffffffffffffffffffffffffffffffffffffffff168152602001908152602001600020604051806040016040529081600082015481526020016001820160009054906101000a900460ff16151515158152505090508060200151610aaf576040517f08c379a0000000000000000000000000000000000000000000000000000000008152600401610aa6906138c2565b60405180910390fd5b6000610ac685600067ffffffffffffffff166104df565b9050600560008673ffffffffffffffffffffffffffffffffffffffff1673ffffffffffffffffffffffffffffffffffffffff1681526020019081526020016000208181604051806040016040529081600082015481526020016001820160009054906101000a900460ff1615151515815250509150935093505050915091565b610b4e6110e5565b610b586000611999565b565b610b626110e5565b610b6e84848484611a5f565b50505050565b6000600360009054906101000a900473ffffffffffffffffffffffffffffffffffffffff16905090565b6040518060400160405280600381526020017f4d4154000000000000000000000000000000000000000000000000000000000081525081565b600081565b610bee610be76113a2565b8383611c0f565b5050565b60056020528060005260406000206000915090508060000154908060010160009054906101000a900460ff16905082565b600060046000838152602001908152602001600020549050919050565b6000600560008373ffffffffffffffffffffffffffffffffffffffff1673ffffffffffffffffffffffffffffffffffffffff16815260200190815260200160002090508060010160009054906101000a900460ff1615610cd5576040517f08c379a0000000000000000000000000000000000000000000000000000000008152600401610ccc9061392e565b60405180910390fd5b6000816000018190555060018160010160006101000a81548160ff0219169083151502179055507f7ee9b70bf129b91a237044ce07c93c79f5562b96b53c04f7edaf7c9d6711f3d882604051610d2b91906133a2565b60405180910390a15050565b6000600560008373ffffffffffffffffffffffffffffffffffffffff1673ffffffffffffffffffffffffffffffffffffffff168152602001908152602001600020905042816000018190555060006001610d9c84600067ffffffffffffffff166104df565b610da6919061394e565b9050610dce83600067ffffffffffffffff168360405180602001604052806000815250611a5f565b6000610de584600067ffffffffffffffff166104df565b90507fdddb6e14f7f2101397a6526aab95e964de7f1f44ed06aa47a1c9a0e6b99244568482604051610e18929190613982565b60405180910390a150505050565b6000600160008473ffffffffffffffffffffffffffffffffffffffff1673ffffffffffffffffffffffffffffffffffffffff16815260200190815260200160002060008373ffffffffffffffffffffffffffffffffffffffff1673ffffffffffffffffffffffffffffffffffffffff16815260200190815260200160002060009054906101000a900460ff16905092915050565b610ec26113a2565b73ffffffffffffffffffffffffffffffffffffffff168573ffffffffffffffffffffffffffffffffffffffff161480610f085750610f0785610f026113a2565b610e26565b5b610f47576040517f08c379a0000000000000000000000000000000000000000000000000000000008152600401610f3e9061371e565b60405180910390fd5b610f548585858585611d7b565b5050505050565b610f636110e5565b600073ffffffffffffffffffffffffffffffffffffffff168173ffffffffffffffffffffffffffffffffffffffff1603610fd2576040517f08c379a0000000000000000000000000000000000000000000000000000000008152600401610fc990613a1d565b60405180910390fd5b610fdb81611999565b50565b610fe66113a2565b73ffffffffffffffffffffffffffffffffffffffff168373ffffffffffffffffffffffffffffffffffffffff16148061102c575061102b836110266113a2565b610e26565b5b61106b576040517f08c379a00000000000000000000000000000000000000000000000000000000081526004016110629061371e565b60405180910390fd5b611076838383612016565b505050565b60007f01ffc9a7000000000000000000000000000000000000000000000000000000007bffffffffffffffffffffffffffffffffffffffffffffffffffffffff1916827bffffffffffffffffffffffffffffffffffffffffffffffffffffffff1916149050919050565b6110ed6113a2565b73ffffffffffffffffffffffffffffffffffffffff1661110b610b74565b73ffffffffffffffffffffffffffffffffffffffff1614611161576040517f08c379a000000000000000000000000000000000000000000000000000000000815260040161115890613a89565b60405180910390fd5b565b80600290816111729190613c55565b5050565b600073ffffffffffffffffffffffffffffffffffffffff168473ffffffffffffffffffffffffffffffffffffffff16036111e5576040517f08c379a00000000000000000000000000000000000000000000000000000000081526004016111dc90613d99565b60405180910390fd5b8151835114611229576040517f08c379a000000000000000000000000000000000000000000000000000000000815260040161122090613e2b565b60405180910390fd5b60006112336113a2565b90506112448160008787878761225c565b60005b84518110156112fd57838181518110611263576112626137d0565b5b6020026020010151600080878481518110611281576112806137d0565b5b6020026020010151815260200190815260200160002060008873ffffffffffffffffffffffffffffffffffffffff1673ffffffffffffffffffffffffffffffffffffffff16815260200190815260200160002060008282546112e3919061394e565b9250508190555080806112f59061382e565b915050611247565b508473ffffffffffffffffffffffffffffffffffffffff16600073ffffffffffffffffffffffffffffffffffffffff168273ffffffffffffffffffffffffffffffffffffffff167f4a39dc06d4c0dbc64b70af90fd698a233a518aa5d07e595d983b8c0526c8f7fb8787604051611375929190613e4b565b60405180910390a461138c81600087878787612272565b61139b8160008787878761227a565b5050505050565b600033905090565b81518351146113ee576040517f08c379a00000000000000000000000000000000000000000000000000000000081526004016113e590613e2b565b60405180910390fd5b600073ffffffffffffffffffffffffffffffffffffffff168473ffffffffffffffffffffffffffffffffffffffff160361145d576040517f08c379a000000000000000000000000000000000000000000000000000000000815260040161145490613ef4565b60405180910390fd5b60006114676113a2565b905061147781878787878761225c565b60005b8451811015611628576000858281518110611498576114976137d0565b5b6020026020010151905060008583815181106114b7576114b66137d0565b5b60200260200101519050600080600084815260200190815260200160002060008b73ffffffffffffffffffffffffffffffffffffffff1673ffffffffffffffffffffffffffffffffffffffff16815260200190815260200160002054905081811015611558576040517f08c379a000000000000000000000000000000000000000000000000000000000815260040161154f90613f86565b60405180910390fd5b81810360008085815260200190815260200160002060008c73ffffffffffffffffffffffffffffffffffffffff1673ffffffffffffffffffffffffffffffffffffffff168152602001908152602001600020819055508160008085815260200190815260200160002060008b73ffffffffffffffffffffffffffffffffffffffff1673ffffffffffffffffffffffffffffffffffffffff168152602001908152602001600020600082825461160d919061394e565b92505081905550505050806116219061382e565b905061147a565b508473ffffffffffffffffffffffffffffffffffffffff168673ffffffffffffffffffffffffffffffffffffffff168273ffffffffffffffffffffffffffffffffffffffff167f4a39dc06d4c0dbc64b70af90fd698a233a518aa5d07e595d983b8c0526c8f7fb878760405161169f929190613e4b565b60405180910390a46116b5818787878787612272565b6116c381878787878761227a565b505050505050565b600073ffffffffffffffffffffffffffffffffffffffff168373ffffffffffffffffffffffffffffffffffffffff160361173a576040517f08c379a000000000000000000000000000000000000000000000000000000000815260040161173190614018565b60405180910390fd5b805182511461177e576040517f08c379a000000000000000000000000000000000000000000000000000000000815260040161177590613e2b565b60405180910390fd5b60006117886113a2565b90506117a88185600086866040518060200160405280600081525061225c565b60005b83518110156118f55760008482815181106117c9576117c86137d0565b5b6020026020010151905060008483815181106117e8576117e76137d0565b5b60200260200101519050600080600084815260200190815260200160002060008973ffffffffffffffffffffffffffffffffffffffff1673ffffffffffffffffffffffffffffffffffffffff16815260200190815260200160002054905081811015611889576040517f08c379a0000000000000000000000000000000000000000000000000000000008152600401611880906140aa565b60405180910390fd5b81810360008085815260200190815260200160002060008a73ffffffffffffffffffffffffffffffffffffffff1673ffffffffffffffffffffffffffffffffffffffff1681526020019081526020016000208190555050505080806118ed9061382e565b9150506117ab565b50600073ffffffffffffffffffffffffffffffffffffffff168473ffffffffffffffffffffffffffffffffffffffff168273ffffffffffffffffffffffffffffffffffffffff167f4a39dc06d4c0dbc64b70af90fd698a233a518aa5d07e595d983b8c0526c8f7fb868660405161196d929190613e4b565b60405180910390a461199381856000868660405180602001604052806000815250612272565b50505050565b6000600360009054906101000a900473ffffffffffffffffffffffffffffffffffffffff16905081600360006101000a81548173ffffffffffffffffffffffffffffffffffffffff021916908373ffffffffffffffffffffffffffffffffffffffff1602179055508173ffffffffffffffffffffffffffffffffffffffff168173ffffffffffffffffffffffffffffffffffffffff167f8be0079c531659141344cd1fd0a4f28419497f9722a3daafe3b4186f6b6457e060405160405180910390a35050565b600073ffffffffffffffffffffffffffffffffffffffff168473ffffffffffffffffffffffffffffffffffffffff1603611ace576040517f08c379a0000000000000000000000000000000000000000000000000000000008152600401611ac590613d99565b60405180910390fd5b6000611ad86113a2565b90506000611ae585612451565b90506000611af285612451565b9050611b038360008985858961225c565b8460008088815260200190815260200160002060008973ffffffffffffffffffffffffffffffffffffffff1673ffffffffffffffffffffffffffffffffffffffff1681526020019081526020016000206000828254611b62919061394e565b925050819055508673ffffffffffffffffffffffffffffffffffffffff16600073ffffffffffffffffffffffffffffffffffffffff168473ffffffffffffffffffffffffffffffffffffffff167fc3d58168c5ae7397731d063d5bbf3d657854427343f4c083240f7aacaa2d0f628989604051611be09291906140ca565b60405180910390a4611bf783600089858589612272565b611c06836000898989896124cb565b50505050505050565b8173ffffffffffffffffffffffffffffffffffffffff168373ffffffffffffffffffffffffffffffffffffffff1603611c7d576040517f08c379a0000000000000000000000000000000000000000000000000000000008152600401611c7490614165565b60405180910390fd5b80600160008573ffffffffffffffffffffffffffffffffffffffff1673ffffffffffffffffffffffffffffffffffffffff16815260200190815260200160002060008473ffffffffffffffffffffffffffffffffffffffff1673ffffffffffffffffffffffffffffffffffffffff16815260200190815260200160002060006101000a81548160ff0219169083151502179055508173ffffffffffffffffffffffffffffffffffffffff168373ffffffffffffffffffffffffffffffffffffffff167f17307eab39ab6107e8899845ad3d59bd9653f200f220920489ca2b5937696c3183604051611d6e9190612a6b565b60405180910390a3505050565b600073ffffffffffffffffffffffffffffffffffffffff168473ffffffffffffffffffffffffffffffffffffffff1603611dea576040517f08c379a0000000000000000000000000000000000000000000000000000000008152600401611de190613ef4565b60405180910390fd5b6000611df46113a2565b90506000611e0185612451565b90506000611e0e85612451565b9050611e1e83898985858961225c565b600080600088815260200190815260200160002060008a73ffffffffffffffffffffffffffffffffffffffff1673ffffffffffffffffffffffffffffffffffffffff16815260200190815260200160002054905085811015611eb5576040517f08c379a0000000000000000000000000000000000000000000000000000000008152600401611eac90613f86565b60405180910390fd5b85810360008089815260200190815260200160002060008b73ffffffffffffffffffffffffffffffffffffffff1673ffffffffffffffffffffffffffffffffffffffff168152602001908152602001600020819055508560008089815260200190815260200160002060008a73ffffffffffffffffffffffffffffffffffffffff1673ffffffffffffffffffffffffffffffffffffffff1681526020019081526020016000206000828254611f6a919061394e565b925050819055508773ffffffffffffffffffffffffffffffffffffffff168973ffffffffffffffffffffffffffffffffffffffff168573ffffffffffffffffffffffffffffffffffffffff167fc3d58168c5ae7397731d063d5bbf3d657854427343f4c083240f7aacaa2d0f628a8a604051611fe79291906140ca565b60405180910390a4611ffd848a8a86868a612272565b61200b848a8a8a8a8a6124cb565b505050505050505050565b600073ffffffffffffffffffffffffffffffffffffffff168373ffffffffffffffffffffffffffffffffffffffff1603612085576040517f08c379a000000000000000000000000000000000000000000000000000000000815260040161207c90614018565b60405180910390fd5b600061208f6113a2565b9050600061209c84612451565b905060006120a984612451565b90506120c98387600085856040518060200160405280600081525061225c565b600080600087815260200190815260200160002060008873ffffffffffffffffffffffffffffffffffffffff1673ffffffffffffffffffffffffffffffffffffffff16815260200190815260200160002054905084811015612160576040517f08c379a0000000000000000000000000000000000000000000000000000000008152600401612157906140aa565b60405180910390fd5b84810360008088815260200190815260200160002060008973ffffffffffffffffffffffffffffffffffffffff1673ffffffffffffffffffffffffffffffffffffffff16815260200190815260200160002081905550600073ffffffffffffffffffffffffffffffffffffffff168773ffffffffffffffffffffffffffffffffffffffff168573ffffffffffffffffffffffffffffffffffffffff167fc3d58168c5ae7397731d063d5bbf3d657854427343f4c083240f7aacaa2d0f62898960405161222d9291906140ca565b60405180910390a461225384886000868660405180602001604052806000815250612272565b50505050505050565b61226a8686868686866126a2565b505050505050565b505050505050565b6122998473ffffffffffffffffffffffffffffffffffffffff16612872565b15612449578373ffffffffffffffffffffffffffffffffffffffff1663bc197c8187878686866040518663ffffffff1660e01b81526004016122df9594939291906141da565b6020604051808303816000875af192505050801561231b57506040513d601f19601f820116820180604052508101906123189190614257565b60015b6123c057612327614291565b806308c379a003612383575061233b6142b3565b806123465750612385565b806040517f08c379a000000000000000000000000000000000000000000000000000000000815260040161237a9190612c94565b60405180910390fd5b505b6040517f08c379a00000000000000000000000000000000000000000000000000000000081526004016123b7906143b5565b60405180910390fd5b63bc197c8160e01b7bffffffffffffffffffffffffffffffffffffffffffffffffffffffff1916817bffffffffffffffffffffffffffffffffffffffffffffffffffffffff191614612447576040517f08c379a000000000000000000000000000000000000000000000000000000000815260040161243e90614447565b60405180910390fd5b505b505050505050565b60606000600167ffffffffffffffff8111156124705761246f612aa1565b5b60405190808252806020026020018201604052801561249e5781602001602082028036833780820191505090505b50905082816000815181106124b6576124b56137d0565b5b60200260200101818152505080915050919050565b6124ea8473ffffffffffffffffffffffffffffffffffffffff16612872565b1561269a578373ffffffffffffffffffffffffffffffffffffffff1663f23a6e6187878686866040518663ffffffff1660e01b8152600401612530959493929190614467565b6020604051808303816000875af192505050801561256c57506040513d601f19601f820116820180604052508101906125699190614257565b60015b61261157612578614291565b806308c379a0036125d4575061258c6142b3565b8061259757506125d6565b806040517f08c379a00000000000000000000000000000000000000000000000000000000081526004016125cb9190612c94565b60405180910390fd5b505b6040517f08c379a0000000000000000000000000000000000000000000000000000000008152600401612608906143b5565b60405180910390fd5b63f23a6e6160e01b7bffffffffffffffffffffffffffffffffffffffffffffffffffffffff1916817bffffffffffffffffffffffffffffffffffffffffffffffffffffffff191614612698576040517f08c379a000000000000000000000000000000000000000000000000000000000815260040161268f90614447565b60405180910390fd5b505b505050505050565b6126b0868686868686612895565b600073ffffffffffffffffffffffffffffffffffffffff168573ffffffffffffffffffffffffffffffffffffffff16036127615760005b835181101561275f57828181518110612703576127026137d0565b5b602002602001015160046000868481518110612722576127216137d0565b5b602002602001015181526020019081526020016000206000828254612747919061394e565b92505081905550806127589061382e565b90506126e7565b505b600073ffffffffffffffffffffffffffffffffffffffff168473ffffffffffffffffffffffffffffffffffffffff160361286a5760005b83518110156128685760008482815181106127b6576127b56137d0565b5b6020026020010151905060008483815181106127d5576127d46137d0565b5b602002602001015190506000600460008481526020019081526020016000205490508181101561283a576040517f08c379a000000000000000000000000000000000000000000000000000000000815260040161283190614533565b60405180910390fd5b8181036004600085815260200190815260200160002081905550505050806128619061382e565b9050612798565b505b505050505050565b6000808273ffffffffffffffffffffffffffffffffffffffff163b119050919050565b505050505050565b6040518060400160405280600081526020016000151581525090565b6000604051905090565b600080fd5b600080fd5b600073ffffffffffffffffffffffffffffffffffffffff82169050919050565b60006128f8826128cd565b9050919050565b612908816128ed565b811461291357600080fd5b50565b600081359050612925816128ff565b92915050565b6000819050919050565b61293e8161292b565b811461294957600080fd5b50565b60008135905061295b81612935565b92915050565b60008060408385031215612978576129776128c3565b5b600061298685828601612916565b92505060206129978582860161294c565b9150509250929050565b6129aa8161292b565b82525050565b60006020820190506129c560008301846129a1565b92915050565b60007fffffffff0000000000000000000000000000000000000000000000000000000082169050919050565b612a00816129cb565b8114612a0b57600080fd5b50565b600081359050612a1d816129f7565b92915050565b600060208284031215612a3957612a386128c3565b5b6000612a4784828501612a0e565b91505092915050565b60008115159050919050565b612a6581612a50565b82525050565b6000602082019050612a806000830184612a5c565b92915050565b600080fd5b600080fd5b6000601f19601f8301169050919050565b7f4e487b7100000000000000000000000000000000000000000000000000000000600052604160045260246000fd5b612ad982612a90565b810181811067ffffffffffffffff82111715612af857612af7612aa1565b5b80604052505050565b6000612b0b6128b9565b9050612b178282612ad0565b919050565b600067ffffffffffffffff821115612b3757612b36612aa1565b5b612b4082612a90565b9050602081019050919050565b82818337600083830152505050565b6000612b6f612b6a84612b1c565b612b01565b905082815260208101848484011115612b8b57612b8a612a8b565b5b612b96848285612b4d565b509392505050565b600082601f830112612bb357612bb2612a86565b5b8135612bc3848260208601612b5c565b91505092915050565b600060208284031215612be257612be16128c3565b5b600082013567ffffffffffffffff811115612c0057612bff6128c8565b5b612c0c84828501612b9e565b91505092915050565b600081519050919050565b600082825260208201905092915050565b60005b83811015612c4f578082015181840152602081019050612c34565b60008484015250505050565b6000612c6682612c15565b612c708185612c20565b9350612c80818560208601612c31565b612c8981612a90565b840191505092915050565b60006020820190508181036000830152612cae8184612c5b565b905092915050565b600060208284031215612ccc57612ccb6128c3565b5b6000612cda8482850161294c565b91505092915050565b600067ffffffffffffffff821115612cfe57612cfd612aa1565b5b602082029050602081019050919050565b600080fd5b6000612d27612d2284612ce3565b612b01565b90508083825260208201905060208402830185811115612d4a57612d49612d0f565b5b835b81811015612d735780612d5f888261294c565b845260208401935050602081019050612d4c565b5050509392505050565b600082601f830112612d9257612d91612a86565b5b8135612da2848260208601612d14565b91505092915050565b600067ffffffffffffffff821115612dc657612dc5612aa1565b5b612dcf82612a90565b9050602081019050919050565b6000612def612dea84612dab565b612b01565b905082815260208101848484011115612e0b57612e0a612a8b565b5b612e16848285612b4d565b509392505050565b600082601f830112612e3357612e32612a86565b5b8135612e43848260208601612ddc565b91505092915050565b60008060008060808587031215612e6657612e656128c3565b5b6000612e7487828801612916565b945050602085013567ffffffffffffffff811115612e9557612e946128c8565b5b612ea187828801612d7d565b935050604085013567ffffffffffffffff811115612ec257612ec16128c8565b5b612ece87828801612d7d565b925050606085013567ffffffffffffffff811115612eef57612eee6128c8565b5b612efb87828801612e1e565b91505092959194509250565b600080600080600060a08688031215612f2357612f226128c3565b5b6000612f3188828901612916565b9550506020612f4288828901612916565b945050604086013567ffffffffffffffff811115612f6357612f626128c8565b5b612f6f88828901612d7d565b935050606086013567ffffffffffffffff811115612f9057612f8f6128c8565b5b612f9c88828901612d7d565b925050608086013567ffffffffffffffff811115612fbd57612fbc6128c8565b5b612fc988828901612e1e565b9150509295509295909350565b600067ffffffffffffffff821115612ff157612ff0612aa1565b5b602082029050602081019050919050565b600061301561301084612fd6565b612b01565b9050808382526020820190506020840283018581111561303857613037612d0f565b5b835b81811015613061578061304d8882612916565b84526020840193505060208101905061303a565b5050509392505050565b600082601f8301126130805761307f612a86565b5b8135613090848260208601613002565b91505092915050565b600080604083850312156130b0576130af6128c3565b5b600083013567ffffffffffffffff8111156130ce576130cd6128c8565b5b6130da8582860161306b565b925050602083013567ffffffffffffffff8111156130fb576130fa6128c8565b5b61310785828601612d7d565b9150509250929050565b600081519050919050565b600082825260208201905092915050565b6000819050602082019050919050565b6131468161292b565b82525050565b6000613158838361313d565b60208301905092915050565b6000602082019050919050565b600061317c82613111565b613186818561311c565b93506131918361312d565b8060005b838110156131c25781516131a9888261314c565b97506131b483613164565b925050600181019050613195565b5085935050505092915050565b600060208201905081810360008301526131e98184613171565b905092915050565b60008060006060848603121561320a576132096128c3565b5b600061321886828701612916565b935050602084013567ffffffffffffffff811115613239576132386128c8565b5b61324586828701612d7d565b925050604084013567ffffffffffffffff811115613266576132656128c8565b5b61327286828701612d7d565b9150509250925092565b600060208284031215613292576132916128c3565b5b60006132a084828501612916565b91505092915050565b6132b281612a50565b82525050565b6040820160008201516132ce600085018261313d565b5060208201516132e160208501826132a9565b50505050565b60006060820190506132fc60008301856132b8565b61330960408301846129a1565b9392505050565b6000806000806080858703121561332a576133296128c3565b5b600061333887828801612916565b94505060206133498782880161294c565b935050604061335a8782880161294c565b925050606085013567ffffffffffffffff81111561337b5761337a6128c8565b5b61338787828801612e1e565b91505092959194509250565b61339c816128ed565b82525050565b60006020820190506133b76000830184613393565b92915050565b600067ffffffffffffffff82169050919050565b6133da816133bd565b82525050565b60006020820190506133f560008301846133d1565b92915050565b61340481612a50565b811461340f57600080fd5b50565b600081359050613421816133fb565b92915050565b6000806040838503121561343e5761343d6128c3565b5b600061344c85828601612916565b925050602061345d85828601613412565b9150509250929050565b600060408201905061347c60008301856129a1565b6134896020830184612a5c565b9392505050565b600080604083850312156134a7576134a66128c3565b5b60006134b585828601612916565b92505060206134c685828601612916565b9150509250929050565b600080600080600060a086880312156134ec576134eb6128c3565b5b60006134fa88828901612916565b955050602061350b88828901612916565b945050604061351c8882890161294c565b935050606061352d8882890161294c565b925050608086013567ffffffffffffffff81111561354e5761354d6128c8565b5b61355a88828901612e1e565b9150509295509295909350565b6000806000606084860312156135805761357f6128c3565b5b600061358e86828701612916565b935050602061359f8682870161294c565b92505060406135b08682870161294c565b9150509250925092565b7f455243313135353a2061646472657373207a65726f206973206e6f742061207660008201527f616c6964206f776e657200000000000000000000000000000000000000000000602082015250565b6000613616602a83612c20565b9150613621826135ba565b604082019050919050565b6000602082019050818103600083015261364581613609565b9050919050565b7f4e487b7100000000000000000000000000000000000000000000000000000000600052602260045260246000fd5b6000600282049050600182168061369357607f821691505b6020821081036136a6576136a561364c565b5b50919050565b7f455243313135353a2063616c6c6572206973206e6f7420746f6b656e206f776e60008201527f6572206f7220617070726f766564000000000000000000000000000000000000602082015250565b6000613708602e83612c20565b9150613713826136ac565b604082019050919050565b60006020820190508181036000830152613737816136fb565b9050919050565b7f455243313135353a206163636f756e747320616e6420696473206c656e67746860008201527f206d69736d617463680000000000000000000000000000000000000000000000602082015250565b600061379a602983612c20565b91506137a58261373e565b604082019050919050565b600060208201905081810360008301526137c98161378d565b9050919050565b7f4e487b7100000000000000000000000000000000000000000000000000000000600052603260045260246000fd5b7f4e487b7100000000000000000000000000000000000000000000000000000000600052601160045260246000fd5b60006138398261292b565b91507fffffffffffffffffffffffffffffffffffffffffffffffffffffffffffffffff820361386b5761386a6137ff565b5b600182019050919050565b7f5573657220646f6573206e6f7420657869737400000000000000000000000000600082015250565b60006138ac601383612c20565b91506138b782613876565b602082019050919050565b600060208201905081810360008301526138db8161389f565b9050919050565b7f5573657220616c72656164792065786973747300000000000000000000000000600082015250565b6000613918601383612c20565b9150613923826138e2565b602082019050919050565b600060208201905081810360008301526139478161390b565b9050919050565b60006139598261292b565b91506139648361292b565b925082820190508082111561397c5761397b6137ff565b5b92915050565b60006040820190506139976000830185613393565b6139a460208301846129a1565b9392505050565b7f4f776e61626c653a206e6577206f776e657220697320746865207a65726f206160008201527f6464726573730000000000000000000000000000000000000000000000000000602082015250565b6000613a07602683612c20565b9150613a12826139ab565b604082019050919050565b60006020820190508181036000830152613a36816139fa565b9050919050565b7f4f776e61626c653a2063616c6c6572206973206e6f7420746865206f776e6572600082015250565b6000613a73602083612c20565b9150613a7e82613a3d565b602082019050919050565b60006020820190508181036000830152613aa281613a66565b9050919050565b60008190508160005260206000209050919050565b60006020601f8301049050919050565b600082821b905092915050565b600060088302613b0b7fffffffffffffffffffffffffffffffffffffffffffffffffffffffffffffffff82613ace565b613b158683613ace565b95508019841693508086168417925050509392505050565b6000819050919050565b6000613b52613b4d613b488461292b565b613b2d565b61292b565b9050919050565b6000819050919050565b613b6c83613b37565b613b80613b7882613b59565b848454613adb565b825550505050565b600090565b613b95613b88565b613ba0818484613b63565b505050565b5b81811015613bc457613bb9600082613b8d565b600181019050613ba6565b5050565b601f821115613c0957613bda81613aa9565b613be384613abe565b81016020851015613bf2578190505b613c06613bfe85613abe565b830182613ba5565b50505b505050565b600082821c905092915050565b6000613c2c60001984600802613c0e565b1980831691505092915050565b6000613c458383613c1b565b9150826002028217905092915050565b613c5e82612c15565b67ffffffffffffffff811115613c7757613c76612aa1565b5b613c81825461367b565b613c8c828285613bc8565b600060209050601f831160018114613cbf5760008415613cad578287015190505b613cb78582613c39565b865550613d1f565b601f198416613ccd86613aa9565b60005b82811015613cf557848901518255600182019150602085019450602081019050613cd0565b86831015613d125784890151613d0e601f891682613c1b565b8355505b6001600288020188555050505b505050505050565b7f455243313135353a206d696e7420746f20746865207a65726f2061646472657360008201527f7300000000000000000000000000000000000000000000000000000000000000602082015250565b6000613d83602183612c20565b9150613d8e82613d27565b604082019050919050565b60006020820190508181036000830152613db281613d76565b9050919050565b7f455243313135353a2069647320616e6420616d6f756e7473206c656e6774682060008201527f6d69736d61746368000000000000000000000000000000000000000000000000602082015250565b6000613e15602883612c20565b9150613e2082613db9565b604082019050919050565b60006020820190508181036000830152613e4481613e08565b9050919050565b60006040820190508181036000830152613e658185613171565b90508181036020830152613e798184613171565b90509392505050565b7f455243313135353a207472616e7366657220746f20746865207a65726f20616460008201527f6472657373000000000000000000000000000000000000000000000000000000602082015250565b6000613ede602583612c20565b9150613ee982613e82565b604082019050919050565b60006020820190508181036000830152613f0d81613ed1565b9050919050565b7f455243313135353a20696e73756666696369656e742062616c616e636520666f60008201527f72207472616e7366657200000000000000000000000000000000000000000000602082015250565b6000613f70602a83612c20565b9150613f7b82613f14565b604082019050919050565b60006020820190508181036000830152613f9f81613f63565b9050919050565b7f455243313135353a206275726e2066726f6d20746865207a65726f206164647260008201527f6573730000000000000000000000000000000000000000000000000000000000602082015250565b6000614002602383612c20565b915061400d82613fa6565b604082019050919050565b6000602082019050818103600083015261403181613ff5565b9050919050565b7f455243313135353a206275726e20616d6f756e7420657863656564732062616c60008201527f616e636500000000000000000000000000000000000000000000000000000000602082015250565b6000614094602483612c20565b915061409f82614038565b604082019050919050565b600060208201905081810360008301526140c381614087565b9050919050565b60006040820190506140df60008301856129a1565b6140ec60208301846129a1565b9392505050565b7f455243313135353a2073657474696e6720617070726f76616c2073746174757360008201527f20666f722073656c660000000000000000000000000000000000000000000000602082015250565b600061414f602983612c20565b915061415a826140f3565b604082019050919050565b6000602082019050818103600083015261417e81614142565b9050919050565b600081519050919050565b600082825260208201905092915050565b60006141ac82614185565b6141b68185614190565b93506141c6818560208601612c31565b6141cf81612a90565b840191505092915050565b600060a0820190506141ef6000830188613393565b6141fc6020830187613393565b818103604083015261420e8186613171565b905081810360608301526142228185613171565b9050818103608083015261423681846141a1565b90509695505050505050565b600081519050614251816129f7565b92915050565b60006020828403121561426d5761426c6128c3565b5b600061427b84828501614242565b91505092915050565b60008160e01c9050919050565b600060033d11156142b05760046000803e6142ad600051614284565b90505b90565b600060443d10614340576142c56128b9565b60043d036004823e80513d602482011167ffffffffffffffff821117156142ed575050614340565b808201805167ffffffffffffffff81111561430b5750505050614340565b80602083010160043d038501811115614328575050505050614340565b61433782602001850186612ad0565b82955050505050505b90565b7f455243313135353a207472616e7366657220746f206e6f6e2d4552433131353560008201527f526563656976657220696d706c656d656e746572000000000000000000000000602082015250565b600061439f603483612c20565b91506143aa82614343565b604082019050919050565b600060208201905081810360008301526143ce81614392565b9050919050565b7f455243313135353a204552433131353552656365697665722072656a6563746560008201527f6420746f6b656e73000000000000000000000000000000000000000000000000602082015250565b6000614431602883612c20565b915061443c826143d5565b604082019050919050565b6000602082019050818103600083015261446081614424565b9050919050565b600060a08201905061447c6000830188613393565b6144896020830187613393565b61449660408301866129a1565b6144a360608301856129a1565b81810360808301526144b581846141a1565b90509695505050505050565b7f455243313135353a206275726e20616d6f756e74206578636565647320746f7460008201527f616c537570706c79000000000000000000000000000000000000000000000000602082015250565b600061451d602883612c20565b9150614528826144c1565b604082019050919050565b6000602082019050818103600083015261454c81614510565b905091905056fea2646970667358221220c6329e4c62072b3aa40557de38930b26fed9b143b57cce33cbda5ff61f6e79ed64736f6c63430008130033",
  "linkReferences": {},
  "deployedLinkReferences": {}
}